{
  "address": "0xD83aD9223a425451222bdC40Bbe7d1Cd6bA6378E",
  "abi": [
    {
      "inputs": [],
      "name": "AURORAUSD",
      "outputs": [
        {
          "internalType": "contract IAggregator",
          "name": "",
          "type": "address"
        }
      ],
      "stateMutability": "view",
      "type": "function"
    },
    {
      "inputs": [
        {
          "internalType": "bytes",
          "name": "",
          "type": "bytes"
        }
      ],
      "name": "get",
      "outputs": [
        {
          "internalType": "bool",
          "name": "",
          "type": "bool"
        },
        {
          "internalType": "uint256",
          "name": "",
          "type": "uint256"
        }
      ],
      "stateMutability": "view",
      "type": "function"
    },
    {
      "inputs": [
        {
          "internalType": "bytes",
          "name": "",
          "type": "bytes"
        }
      ],
      "name": "name",
      "outputs": [
        {
          "internalType": "string",
          "name": "",
          "type": "string"
        }
      ],
      "stateMutability": "pure",
      "type": "function"
    },
    {
      "inputs": [
        {
          "internalType": "bytes",
          "name": "",
          "type": "bytes"
        }
      ],
      "name": "peek",
      "outputs": [
        {
          "internalType": "bool",
          "name": "",
          "type": "bool"
        },
        {
          "internalType": "uint256",
          "name": "",
          "type": "uint256"
        }
      ],
      "stateMutability": "view",
      "type": "function"
    },
    {
      "inputs": [
        {
          "internalType": "bytes",
          "name": "data",
          "type": "bytes"
        }
      ],
      "name": "peekSpot",
      "outputs": [
        {
          "internalType": "uint256",
          "name": "rate",
          "type": "uint256"
        }
      ],
      "stateMutability": "view",
      "type": "function"
    },
    {
      "inputs": [
        {
          "internalType": "bytes",
          "name": "",
          "type": "bytes"
        }
      ],
      "name": "symbol",
      "outputs": [
        {
          "internalType": "string",
          "name": "",
          "type": "string"
        }
      ],
      "stateMutability": "pure",
      "type": "function"
    }
  ],
  "transactionHash": "0xa0a47906a3978a17787fd1492b4a52c7a007d18f70306edf1cc26e52e81a8230",
  "args": [],
  "solcInputHash": "787c134697aed29dfafa3a74b9ee7724",
  "bytecode": "0x608060405234801561001057600080fd5b5061062b806100206000396000f3fe608060405234801561001057600080fd5b50600436106100625760003560e01c80630c1a7b0814610067578063c699c4d614610085578063d39bbef0146100b5578063d568866c146100e5578063d6d7d52514610115578063eeb8a8d314610146575b600080fd5b61006f610177565b60405161007c9190610462565b60405180910390f35b61009f600480360381019061009a9190610365565b61018f565b6040516100ac919061047d565b60405180910390f35b6100cf60048036038101906100ca9190610365565b6101cf565b6040516100dc919061049f565b60405180910390f35b6100ff60048036038101906100fa9190610365565b6101e7565b60405161010c919061047d565b60405180910390f35b61012f600480360381019061012a9190610365565b610227565b60405161013d929190610439565b60405180910390f35b610160600480360381019061015b9190610365565b61023f565b60405161016e929190610439565b60405180910390f35b7380d2415fbe8b1b1650d984eacfb4720dc8e9da1681565b60606040518060400160405280600b81526020017f464c55582f4175726f7261000000000000000000000000000000000000000000815250905092915050565b60006101db838361023f565b90508091505092915050565b60606040518060400160405280600b81526020017f466c7578204175726f7261000000000000000000000000000000000000000000815250905092915050565b6000806001610234610257565b915091509250929050565b600080600161024c610257565b915091509250929050565b60007380d2415fbe8b1b1650d984eacfb4720dc8e9da1673ffffffffffffffffffffffffffffffffffffffff166350d25bcd6040518163ffffffff1660e01b815260040160206040518083038186803b1580156102b357600080fd5b505afa1580156102c7573d6000803e3d6000fd5b505050506040513d601f19601f820116820180604052508101906102eb91906103aa565b6a52b7d2dcc80cd2e400000061030191906104d6565b905090565b60008083601f84011261031857600080fd5b8235905067ffffffffffffffff81111561033157600080fd5b60208301915083600182028301111561034957600080fd5b9250929050565b60008151905061035f816105de565b92915050565b6000806020838503121561037857600080fd5b600083013567ffffffffffffffff81111561039257600080fd5b61039e85828601610306565b92509250509250929050565b6000602082840312156103bc57600080fd5b60006103ca84828501610350565b91505092915050565b6103dc81610507565b82525050565b6103eb81610547565b82525050565b60006103fc826104ba565b61040681856104c5565b935061041681856020860161056b565b61041f816105cd565b840191505092915050565b6104338161053d565b82525050565b600060408201905061044e60008301856103d3565b61045b602083018461042a565b9392505050565b600060208201905061047760008301846103e2565b92915050565b6000602082019050818103600083015261049781846103f1565b905092915050565b60006020820190506104b4600083018461042a565b92915050565b600081519050919050565b600082825260208201905092915050565b60006104e18261053d565b91506104ec8361053d565b9250826104fc576104fb61059e565b5b828204905092915050565b60008115159050919050565b6000819050919050565b600073ffffffffffffffffffffffffffffffffffffffff82169050919050565b6000819050919050565b600061055282610559565b9050919050565b60006105648261051d565b9050919050565b60005b8381101561058957808201518184015260208101905061056e565b83811115610598576000848401525b50505050565b7f4e487b7100000000000000000000000000000000000000000000000000000000600052601260045260246000fd5b6000601f19601f8301169050919050565b6105e781610513565b81146105f257600080fd5b5056fea2646970667358221220bf65a771a4d698c255433898978836f2ea8a2ea7e3118b16a95a52c7356552f264736f6c63430008040033",
  "devdoc": {
    "kind": "dev",
    "methods": {
      "get(bytes)": {
        "params": {
          "data": "Usually abi encoded, implementation specific data that contains information and arguments to & about the oracle. For example: (string memory collateralSymbol, string memory assetSymbol, uint256 division) = abi.decode(data, (string, string, uint256));"
        },
        "returns": {
          "_0": "if no valid (recent) rate is available, return false else true.",
          "_1": "The rate of the requested asset / pair / pool."
        }
      },
      "name(bytes)": {
        "params": {
          "data": "Usually abi encoded, implementation specific data that contains information and arguments to & about the oracle. For example: (string memory collateralSymbol, string memory assetSymbol, uint256 division) = abi.decode(data, (string, string, uint256));"
        },
        "returns": {
          "_0": "(string) A human readable name about this oracle."
        }
      },
      "peek(bytes)": {
        "params": {
          "data": "Usually abi encoded, implementation specific data that contains information and arguments to & about the oracle. For example: (string memory collateralSymbol, string memory assetSymbol, uint256 division) = abi.decode(data, (string, string, uint256));"
        },
        "returns": {
          "_0": "if no valid (recent) rate is available, return false else true.",
          "_1": "The rate of the requested asset / pair / pool."
        }
      },
      "peekSpot(bytes)": {
        "params": {
          "data": "Usually abi encoded, implementation specific data that contains information and arguments to & about the oracle. For example: (string memory collateralSymbol, string memory assetSymbol, uint256 division) = abi.decode(data, (string, string, uint256));"
        },
        "returns": {
          "rate": "The rate of the requested asset / pair / pool."
        }
      },
      "symbol(bytes)": {
        "params": {
          "data": "Usually abi encoded, implementation specific data that contains information and arguments to & about the oracle. For example: (string memory collateralSymbol, string memory assetSymbol, uint256 division) = abi.decode(data, (string, string, uint256));"
        },
        "returns": {
          "_0": "(string) A human readable symbol name about this oracle."
        }
      }
    },
    "version": 1
  },
  "userdoc": {
    "kind": "user",
    "methods": {
      "get(bytes)": {
        "notice": "Get the latest exchange rate."
      },
      "name(bytes)": {
        "notice": "Returns a human readable name about this oracle."
      },
      "peek(bytes)": {
        "notice": "Check the last exchange rate without any state changes."
      },
      "peekSpot(bytes)": {
        "notice": "Check the current spot exchange rate without any state changes. For oracles like TWAP this will be different from peek()."
      },
      "symbol(bytes)": {
        "notice": "Returns a human readable (short) name about this oracle."
      }
    },
    "version": 1
  },
  "storageLayout": {
    "storage": [],
    "types": null
  }
}