{
  "address": "0x1A32B83332A9b967c48853A7aC0906392Dff6be3",
  "abi": [
    {
      "inputs": [
        {
          "internalType": "contract IERC20",
          "name": "wethToken_",
          "type": "address"
        }
      ],
      "stateMutability": "nonpayable",
      "type": "constructor"
    },
    {
      "anonymous": false,
      "inputs": [
        {
          "indexed": true,
          "internalType": "address",
          "name": "masterContract",
          "type": "address"
        },
        {
          "indexed": false,
          "internalType": "bytes",
          "name": "data",
          "type": "bytes"
        },
        {
          "indexed": true,
          "internalType": "address",
          "name": "cloneAddress",
          "type": "address"
        }
      ],
      "name": "LogDeploy",
      "type": "event"
    },
    {
      "anonymous": false,
      "inputs": [
        {
          "indexed": true,
          "internalType": "contract IERC20",
          "name": "token",
          "type": "address"
        },
        {
          "indexed": true,
          "internalType": "address",
          "name": "from",
          "type": "address"
        },
        {
          "indexed": true,
          "internalType": "address",
          "name": "to",
          "type": "address"
        },
        {
          "indexed": false,
          "internalType": "uint256",
          "name": "amount",
          "type": "uint256"
        },
        {
          "indexed": false,
          "internalType": "uint256",
          "name": "share",
          "type": "uint256"
        }
      ],
      "name": "LogDeposit",
      "type": "event"
    },
    {
      "anonymous": false,
      "inputs": [
        {
          "indexed": true,
          "internalType": "address",
          "name": "borrower",
          "type": "address"
        },
        {
          "indexed": true,
          "internalType": "contract IERC20",
          "name": "token",
          "type": "address"
        },
        {
          "indexed": false,
          "internalType": "uint256",
          "name": "amount",
          "type": "uint256"
        },
        {
          "indexed": false,
          "internalType": "uint256",
          "name": "feeAmount",
          "type": "uint256"
        },
        {
          "indexed": true,
          "internalType": "address",
          "name": "receiver",
          "type": "address"
        }
      ],
      "name": "LogFlashLoan",
      "type": "event"
    },
    {
      "anonymous": false,
      "inputs": [
        {
          "indexed": true,
          "internalType": "address",
          "name": "protocol",
          "type": "address"
        }
      ],
      "name": "LogRegisterProtocol",
      "type": "event"
    },
    {
      "anonymous": false,
      "inputs": [
        {
          "indexed": true,
          "internalType": "address",
          "name": "masterContract",
          "type": "address"
        },
        {
          "indexed": true,
          "internalType": "address",
          "name": "user",
          "type": "address"
        },
        {
          "indexed": false,
          "internalType": "bool",
          "name": "approved",
          "type": "bool"
        }
      ],
      "name": "LogSetMasterContractApproval",
      "type": "event"
    },
    {
      "anonymous": false,
      "inputs": [
        {
          "indexed": true,
          "internalType": "contract IERC20",
          "name": "token",
          "type": "address"
        },
        {
          "indexed": false,
          "internalType": "uint256",
          "name": "amount",
          "type": "uint256"
        }
      ],
      "name": "LogStrategyDivest",
      "type": "event"
    },
    {
      "anonymous": false,
      "inputs": [
        {
          "indexed": true,
          "internalType": "contract IERC20",
          "name": "token",
          "type": "address"
        },
        {
          "indexed": false,
          "internalType": "uint256",
          "name": "amount",
          "type": "uint256"
        }
      ],
      "name": "LogStrategyInvest",
      "type": "event"
    },
    {
      "anonymous": false,
      "inputs": [
        {
          "indexed": true,
          "internalType": "contract IERC20",
          "name": "token",
          "type": "address"
        },
        {
          "indexed": false,
          "internalType": "uint256",
          "name": "amount",
          "type": "uint256"
        }
      ],
      "name": "LogStrategyLoss",
      "type": "event"
    },
    {
      "anonymous": false,
      "inputs": [
        {
          "indexed": true,
          "internalType": "contract IERC20",
          "name": "token",
          "type": "address"
        },
        {
          "indexed": false,
          "internalType": "uint256",
          "name": "amount",
          "type": "uint256"
        }
      ],
      "name": "LogStrategyProfit",
      "type": "event"
    },
    {
      "anonymous": false,
      "inputs": [
        {
          "indexed": true,
          "internalType": "contract IERC20",
          "name": "token",
          "type": "address"
        },
        {
          "indexed": true,
          "internalType": "contract IStrategy",
          "name": "strategy",
          "type": "address"
        }
      ],
      "name": "LogStrategyQueued",
      "type": "event"
    },
    {
      "anonymous": false,
      "inputs": [
        {
          "indexed": true,
          "internalType": "contract IERC20",
          "name": "token",
          "type": "address"
        },
        {
          "indexed": true,
          "internalType": "contract IStrategy",
          "name": "strategy",
          "type": "address"
        }
      ],
      "name": "LogStrategySet",
      "type": "event"
    },
    {
      "anonymous": false,
      "inputs": [
        {
          "indexed": true,
          "internalType": "contract IERC20",
          "name": "token",
          "type": "address"
        },
        {
          "indexed": false,
          "internalType": "uint256",
          "name": "targetPercentage",
          "type": "uint256"
        }
      ],
      "name": "LogStrategyTargetPercentage",
      "type": "event"
    },
    {
      "anonymous": false,
      "inputs": [
        {
          "indexed": true,
          "internalType": "contract IERC20",
          "name": "token",
          "type": "address"
        },
        {
          "indexed": true,
          "internalType": "address",
          "name": "from",
          "type": "address"
        },
        {
          "indexed": true,
          "internalType": "address",
          "name": "to",
          "type": "address"
        },
        {
          "indexed": false,
          "internalType": "uint256",
          "name": "share",
          "type": "uint256"
        }
      ],
      "name": "LogTransfer",
      "type": "event"
    },
    {
      "anonymous": false,
      "inputs": [
        {
          "indexed": true,
          "internalType": "address",
          "name": "masterContract",
          "type": "address"
        },
        {
          "indexed": false,
          "internalType": "bool",
          "name": "approved",
          "type": "bool"
        }
      ],
      "name": "LogWhiteListMasterContract",
      "type": "event"
    },
    {
      "anonymous": false,
      "inputs": [
        {
          "indexed": true,
          "internalType": "contract IERC20",
          "name": "token",
          "type": "address"
        },
        {
          "indexed": true,
          "internalType": "address",
          "name": "from",
          "type": "address"
        },
        {
          "indexed": true,
          "internalType": "address",
          "name": "to",
          "type": "address"
        },
        {
          "indexed": false,
          "internalType": "uint256",
          "name": "amount",
          "type": "uint256"
        },
        {
          "indexed": false,
          "internalType": "uint256",
          "name": "share",
          "type": "uint256"
        }
      ],
      "name": "LogWithdraw",
      "type": "event"
    },
    {
      "anonymous": false,
      "inputs": [
        {
          "indexed": true,
          "internalType": "address",
          "name": "previousOwner",
          "type": "address"
        },
        {
          "indexed": true,
          "internalType": "address",
          "name": "newOwner",
          "type": "address"
        }
      ],
      "name": "OwnershipTransferred",
      "type": "event"
    },
    {
      "inputs": [],
      "name": "DOMAIN_SEPARATOR",
      "outputs": [
        {
          "internalType": "bytes32",
          "name": "",
          "type": "bytes32"
        }
      ],
      "stateMutability": "view",
      "type": "function"
    },
    {
      "inputs": [
        {
          "internalType": "contract IERC20",
          "name": "",
          "type": "address"
        },
        {
          "internalType": "address",
          "name": "",
          "type": "address"
        }
      ],
      "name": "balanceOf",
      "outputs": [
        {
          "internalType": "uint256",
          "name": "",
          "type": "uint256"
        }
      ],
      "stateMutability": "view",
      "type": "function"
    },
    {
      "inputs": [
        {
          "internalType": "bytes[]",
          "name": "calls",
          "type": "bytes[]"
        },
        {
          "internalType": "bool",
          "name": "revertOnFail",
          "type": "bool"
        }
      ],
      "name": "batch",
      "outputs": [
        {
          "internalType": "bool[]",
          "name": "successes",
          "type": "bool[]"
        },
        {
          "internalType": "bytes[]",
          "name": "results",
          "type": "bytes[]"
        }
      ],
      "stateMutability": "payable",
      "type": "function"
    },
    {
      "inputs": [
        {
          "internalType": "contract IBatchFlashBorrower",
          "name": "borrower",
          "type": "address"
        },
        {
          "internalType": "address[]",
          "name": "receivers",
          "type": "address[]"
        },
        {
          "internalType": "contract IERC20[]",
          "name": "tokens",
          "type": "address[]"
        },
        {
          "internalType": "uint256[]",
          "name": "amounts",
          "type": "uint256[]"
        },
        {
          "internalType": "bytes",
          "name": "data",
          "type": "bytes"
        }
      ],
      "name": "batchFlashLoan",
      "outputs": [],
      "stateMutability": "nonpayable",
      "type": "function"
    },
    {
      "inputs": [],
      "name": "claimOwnership",
      "outputs": [],
      "stateMutability": "nonpayable",
      "type": "function"
    },
    {
      "inputs": [
        {
          "internalType": "address",
          "name": "masterContract",
          "type": "address"
        },
        {
          "internalType": "bytes",
          "name": "data",
          "type": "bytes"
        },
        {
          "internalType": "bool",
          "name": "useCreate2",
          "type": "bool"
        }
      ],
      "name": "deploy",
      "outputs": [
        {
          "internalType": "address",
          "name": "cloneAddress",
          "type": "address"
        }
      ],
      "stateMutability": "payable",
      "type": "function"
    },
    {
      "inputs": [
        {
          "internalType": "contract IERC20",
          "name": "token_",
          "type": "address"
        },
        {
          "internalType": "address",
          "name": "from",
          "type": "address"
        },
        {
          "internalType": "address",
          "name": "to",
          "type": "address"
        },
        {
          "internalType": "uint256",
          "name": "amount",
          "type": "uint256"
        },
        {
          "internalType": "uint256",
          "name": "share",
          "type": "uint256"
        }
      ],
      "name": "deposit",
      "outputs": [
        {
          "internalType": "uint256",
          "name": "amountOut",
          "type": "uint256"
        },
        {
          "internalType": "uint256",
          "name": "shareOut",
          "type": "uint256"
        }
      ],
      "stateMutability": "payable",
      "type": "function"
    },
    {
      "inputs": [
        {
          "internalType": "contract IFlashBorrower",
          "name": "borrower",
          "type": "address"
        },
        {
          "internalType": "address",
          "name": "receiver",
          "type": "address"
        },
        {
          "internalType": "contract IERC20",
          "name": "token",
          "type": "address"
        },
        {
          "internalType": "uint256",
          "name": "amount",
          "type": "uint256"
        },
        {
          "internalType": "bytes",
          "name": "data",
          "type": "bytes"
        }
      ],
      "name": "flashLoan",
      "outputs": [],
      "stateMutability": "nonpayable",
      "type": "function"
    },
    {
      "inputs": [
        {
          "internalType": "contract IERC20",
          "name": "token",
          "type": "address"
        },
        {
          "internalType": "bool",
          "name": "balance",
          "type": "bool"
        },
        {
          "internalType": "uint256",
          "name": "maxChangeAmount",
          "type": "uint256"
        }
      ],
      "name": "harvest",
      "outputs": [],
      "stateMutability": "nonpayable",
      "type": "function"
    },
    {
      "inputs": [
        {
          "internalType": "address",
          "name": "",
          "type": "address"
        },
        {
          "internalType": "address",
          "name": "",
          "type": "address"
        }
      ],
      "name": "masterContractApproved",
      "outputs": [
        {
          "internalType": "bool",
          "name": "",
          "type": "bool"
        }
      ],
      "stateMutability": "view",
      "type": "function"
    },
    {
      "inputs": [
        {
          "internalType": "address",
          "name": "",
          "type": "address"
        }
      ],
      "name": "masterContractOf",
      "outputs": [
        {
          "internalType": "address",
          "name": "",
          "type": "address"
        }
      ],
      "stateMutability": "view",
      "type": "function"
    },
    {
      "inputs": [
        {
          "internalType": "address",
          "name": "",
          "type": "address"
        }
      ],
      "name": "nonces",
      "outputs": [
        {
          "internalType": "uint256",
          "name": "",
          "type": "uint256"
        }
      ],
      "stateMutability": "view",
      "type": "function"
    },
    {
      "inputs": [],
      "name": "owner",
      "outputs": [
        {
          "internalType": "address",
          "name": "",
          "type": "address"
        }
      ],
      "stateMutability": "view",
      "type": "function"
    },
    {
      "inputs": [],
      "name": "pendingOwner",
      "outputs": [
        {
          "internalType": "address",
          "name": "",
          "type": "address"
        }
      ],
      "stateMutability": "view",
      "type": "function"
    },
    {
      "inputs": [
        {
          "internalType": "contract IERC20",
          "name": "",
          "type": "address"
        }
      ],
      "name": "pendingStrategy",
      "outputs": [
        {
          "internalType": "contract IStrategy",
          "name": "",
          "type": "address"
        }
      ],
      "stateMutability": "view",
      "type": "function"
    },
    {
      "inputs": [
        {
          "internalType": "contract IERC20",
          "name": "token",
          "type": "address"
        },
        {
          "internalType": "address",
          "name": "from",
          "type": "address"
        },
        {
          "internalType": "address",
          "name": "to",
          "type": "address"
        },
        {
          "internalType": "uint256",
          "name": "amount",
          "type": "uint256"
        },
        {
          "internalType": "uint256",
          "name": "deadline",
          "type": "uint256"
        },
        {
          "internalType": "uint8",
          "name": "v",
          "type": "uint8"
        },
        {
          "internalType": "bytes32",
          "name": "r",
          "type": "bytes32"
        },
        {
          "internalType": "bytes32",
          "name": "s",
          "type": "bytes32"
        }
      ],
      "name": "permitToken",
      "outputs": [],
      "stateMutability": "nonpayable",
      "type": "function"
    },
    {
      "inputs": [],
      "name": "registerProtocol",
      "outputs": [],
      "stateMutability": "nonpayable",
      "type": "function"
    },
    {
      "inputs": [
        {
          "internalType": "address",
          "name": "user",
          "type": "address"
        },
        {
          "internalType": "address",
          "name": "masterContract",
          "type": "address"
        },
        {
          "internalType": "bool",
          "name": "approved",
          "type": "bool"
        },
        {
          "internalType": "uint8",
          "name": "v",
          "type": "uint8"
        },
        {
          "internalType": "bytes32",
          "name": "r",
          "type": "bytes32"
        },
        {
          "internalType": "bytes32",
          "name": "s",
          "type": "bytes32"
        }
      ],
      "name": "setMasterContractApproval",
      "outputs": [],
      "stateMutability": "nonpayable",
      "type": "function"
    },
    {
      "inputs": [
        {
          "internalType": "contract IERC20",
          "name": "token",
          "type": "address"
        },
        {
          "internalType": "contract IStrategy",
          "name": "newStrategy",
          "type": "address"
        }
      ],
      "name": "setStrategy",
      "outputs": [],
      "stateMutability": "nonpayable",
      "type": "function"
    },
    {
      "inputs": [
        {
          "internalType": "contract IERC20",
          "name": "token",
          "type": "address"
        },
        {
          "internalType": "uint64",
          "name": "targetPercentage_",
          "type": "uint64"
        }
      ],
      "name": "setStrategyTargetPercentage",
      "outputs": [],
      "stateMutability": "nonpayable",
      "type": "function"
    },
    {
      "inputs": [
        {
          "internalType": "contract IERC20",
          "name": "",
          "type": "address"
        }
      ],
      "name": "strategy",
      "outputs": [
        {
          "internalType": "contract IStrategy",
          "name": "",
          "type": "address"
        }
      ],
      "stateMutability": "view",
      "type": "function"
    },
    {
      "inputs": [
        {
          "internalType": "contract IERC20",
          "name": "",
          "type": "address"
        }
      ],
      "name": "strategyData",
      "outputs": [
        {
          "internalType": "uint64",
          "name": "strategyStartDate",
          "type": "uint64"
        },
        {
          "internalType": "uint64",
          "name": "targetPercentage",
          "type": "uint64"
        },
        {
          "internalType": "uint128",
          "name": "balance",
          "type": "uint128"
        }
      ],
      "stateMutability": "view",
      "type": "function"
    },
    {
      "inputs": [],
      "name": "test",
      "outputs": [
        {
          "internalType": "string",
          "name": "",
          "type": "string"
        }
      ],
      "stateMutability": "pure",
      "type": "function"
    },
    {
      "inputs": [
        {
          "internalType": "contract IERC20",
          "name": "token",
          "type": "address"
        },
        {
          "internalType": "uint256",
          "name": "share",
          "type": "uint256"
        },
        {
          "internalType": "bool",
          "name": "roundUp",
          "type": "bool"
        }
      ],
      "name": "toAmount",
      "outputs": [
        {
          "internalType": "uint256",
          "name": "amount",
          "type": "uint256"
        }
      ],
      "stateMutability": "view",
      "type": "function"
    },
    {
      "inputs": [
        {
          "internalType": "contract IERC20",
          "name": "token",
          "type": "address"
        },
        {
          "internalType": "uint256",
          "name": "amount",
          "type": "uint256"
        },
        {
          "internalType": "bool",
          "name": "roundUp",
          "type": "bool"
        }
      ],
      "name": "toShare",
      "outputs": [
        {
          "internalType": "uint256",
          "name": "share",
          "type": "uint256"
        }
      ],
      "stateMutability": "view",
      "type": "function"
    },
    {
      "inputs": [
        {
          "internalType": "contract IERC20",
          "name": "",
          "type": "address"
        }
      ],
      "name": "totals",
      "outputs": [
        {
          "internalType": "uint128",
          "name": "elastic",
          "type": "uint128"
        },
        {
          "internalType": "uint128",
          "name": "base",
          "type": "uint128"
        }
      ],
      "stateMutability": "view",
      "type": "function"
    },
    {
      "inputs": [
        {
          "internalType": "contract IERC20",
          "name": "token",
          "type": "address"
        },
        {
          "internalType": "address",
          "name": "from",
          "type": "address"
        },
        {
          "internalType": "address",
          "name": "to",
          "type": "address"
        },
        {
          "internalType": "uint256",
          "name": "share",
          "type": "uint256"
        }
      ],
      "name": "transfer",
      "outputs": [],
      "stateMutability": "nonpayable",
      "type": "function"
    },
    {
      "inputs": [
        {
          "internalType": "contract IERC20",
          "name": "token",
          "type": "address"
        },
        {
          "internalType": "address",
          "name": "from",
          "type": "address"
        },
        {
          "internalType": "address[]",
          "name": "tos",
          "type": "address[]"
        },
        {
          "internalType": "uint256[]",
          "name": "shares",
          "type": "uint256[]"
        }
      ],
      "name": "transferMultiple",
      "outputs": [],
      "stateMutability": "nonpayable",
      "type": "function"
    },
    {
      "inputs": [
        {
          "internalType": "address",
          "name": "newOwner",
          "type": "address"
        },
        {
          "internalType": "bool",
          "name": "direct",
          "type": "bool"
        },
        {
          "internalType": "bool",
          "name": "renounce",
          "type": "bool"
        }
      ],
      "name": "transferOwnership",
      "outputs": [],
      "stateMutability": "nonpayable",
      "type": "function"
    },
    {
      "inputs": [
        {
          "internalType": "address",
          "name": "masterContract",
          "type": "address"
        },
        {
          "internalType": "bool",
          "name": "approved",
          "type": "bool"
        }
      ],
      "name": "whitelistMasterContract",
      "outputs": [],
      "stateMutability": "nonpayable",
      "type": "function"
    },
    {
      "inputs": [
        {
          "internalType": "address",
          "name": "",
          "type": "address"
        }
      ],
      "name": "whitelistedMasterContracts",
      "outputs": [
        {
          "internalType": "bool",
          "name": "",
          "type": "bool"
        }
      ],
      "stateMutability": "view",
      "type": "function"
    },
    {
      "inputs": [
        {
          "internalType": "contract IERC20",
          "name": "token_",
          "type": "address"
        },
        {
          "internalType": "address",
          "name": "from",
          "type": "address"
        },
        {
          "internalType": "address",
          "name": "to",
          "type": "address"
        },
        {
          "internalType": "uint256",
          "name": "amount",
          "type": "uint256"
        },
        {
          "internalType": "uint256",
          "name": "share",
          "type": "uint256"
        }
      ],
      "name": "withdraw",
      "outputs": [
        {
          "internalType": "uint256",
          "name": "amountOut",
          "type": "uint256"
        },
        {
          "internalType": "uint256",
          "name": "shareOut",
          "type": "uint256"
        }
      ],
      "stateMutability": "nonpayable",
      "type": "function"
    },
    {
      "stateMutability": "payable",
      "type": "receive"
    }
  ],
  "transactionHash": "0x8ef9c7bd00183e4a6941d3063feafb95078a559d70f4559662692a431d69f2f1",
  "args": [
    "0x9D29f395524B3C817ed86e2987A14c1897aFF849"
  ],
  "solcInputHash": "b5437b856a2ea31705f1b21c7ca04550",
  "bytecode": "0x60e06040523480156200001157600080fd5b506040516200482638038062004826833981016040819052620000349162000116565b600080546001600160a01b0319163390811782556040519091907f8be0079c531659141344cd1fd0a4f28419497f9722a3daafe3b4186f6b6457e0908290a34660a081905262000084816200009e565b6080525060601b6001600160601b03191660c0526200016a565b60007f8cad95687ba82c2ce50e74f7b754645e5117c3a5bec8151c0726d5857980a8667fd7df266aff736d415a9dc14b4158201d612e70d75b9c7f4e375ccfd20aa5166f8330604051602001620000f9949392919062000146565b604051602081830303815290604052805190602001209050919050565b60006020828403121562000128578081fd5b81516001600160a01b03811681146200013f578182fd5b9392505050565b938452602084019290925260408301526001600160a01b0316606082015260800190565b60805160a05160c05160601c61467d620001a9600039806106f252806109bf5280611efd52806120de52508061104e525080611083525061467d6000f3fe6080604052600436106101e75760003560e01c80637ecebe0011610102578063da5139ca11610095578063f18d03cc11610064578063f18d03cc14610580578063f483b3da146105a0578063f7888aec146105c0578063f8a8fd6d146105e0576101ee565b8063da5139ca146104fc578063df23b45b1461051c578063e30c39781461054b578063f1676d3714610560576101ee565b8063aee4d1b2116100d1578063aee4d1b214610486578063bafe4f141461049b578063c0a47c93146104bb578063d2423b51146104db576101ee565b80637ecebe00146104115780638da5cb5b1461043157806391e0eab51461044657806397da6d3014610466576101ee565b80634e71e0c81161017a57806366c6bb0b1161014957806366c6bb0b1461039157806372cb5d97146103b1578063733a9d7c146103d15780637c516e94146103f1576101ee565b80634e71e0c81461030e5780634ffe34db146103235780635108a558146103515780635662311814610371576101ee565b80631f54245b116101b65780631f54245b1461028c578063228bfd9f146102ac5780633644e515146102cc5780633e2a9d4e146102ee576101ee565b806302b9446c146101f3578063078dfbe71461021d5780630fca88431461023f57806312a90c8a1461025f576101ee565b366101ee57005b600080fd5b6102066102013660046137e6565b610602565b604051610214929190614553565b60405180910390f35b34801561022957600080fd5b5061023d61023836600461359d565b610ac6565b005b34801561024b57600080fd5b5061023d61025a3660046138c1565b610bac565b34801561026b57600080fd5b5061027f61027a3660046134b0565b610e5d565b6040516102149190613e52565b61029f61029a3660046135e7565b610e72565b6040516102149190613c19565b3480156102b857600080fd5b5061029f6102c73660046134b0565b61102e565b3480156102d857600080fd5b506102e1611049565b6040516102149190613e5d565b3480156102fa57600080fd5b5061023d6103093660046139c8565b6110a9565b34801561031a57600080fd5b5061023d611174565b34801561032f57600080fd5b5061034361033e3660046134b0565b611201565b604051610214929190614539565b34801561035d57600080fd5b5061029f61036c3660046134b0565b611227565b34801561037d57600080fd5b506102e161038c366004613992565b611242565b34801561039d57600080fd5b5061023d6103ac366004613952565b611296565b3480156103bd57600080fd5b5061023d6103cc366004613784565b61185f565b3480156103dd57600080fd5b5061023d6103ec366004613570565b611cbd565b3480156103fd57600080fd5b5061023d61040c366004613840565b611d61565b34801561041d57600080fd5b506102e161042c3660046134b0565b611dd5565b34801561043d57600080fd5b5061029f611de7565b34801561045257600080fd5b5061027f6104613660046134cc565b611df6565b34801561047257600080fd5b506102066104813660046137e6565b611e16565b34801561049257600080fd5b5061023d61222a565b3480156104a757600080fd5b5061029f6104b63660046134b0565b612271565b3480156104c757600080fd5b5061023d6104d6366004613504565b61228c565b6104ee6104e936600461364c565b61259b565b604051610214929190613db8565b34801561050857600080fd5b506102e1610517366004613992565b61272b565b34801561052857600080fd5b5061053c6105373660046134b0565b612777565b60405161021493929190614575565b34801561055757600080fd5b5061029f6127b0565b34801561056c57600080fd5b5061023d61057b366004613a00565b6127bf565b34801561058c57600080fd5b5061023d61059b366004613796565b612910565b3480156105ac57600080fd5b5061023d6105bb3660046136b1565b612ab4565b3480156105cc57600080fd5b506102e16105db366004613784565b612d74565b3480156105ec57600080fd5b506105f5612d91565b6040516102149190613ef0565b600080856001600160a01b038116331480159061062857506001600160a01b0381163014155b156106b357336000908152600260205260409020546001600160a01b03168061066c5760405162461bcd60e51b815260040161066390614356565b60405180910390fd5b6001600160a01b0380821660009081526003602090815260408083209386168352929052205460ff166106b15760405162461bcd60e51b8152600401610663906141d9565b505b6001600160a01b0386166106d95760405162461bcd60e51b81526004016106639061413f565b60006001600160a01b038916156106f05788610712565b7f00000000000000000000000000000000000000000000000000000000000000005b905061071c6133d6565b506001600160a01b0381166000908152600760209081526040918290208251808401909352546001600160801b03808216808552600160801b90920416918301919091521515806107dd57506000826001600160a01b03166318160ddd6040518163ffffffff1660e01b815260040160206040518083038186803b1580156107a357600080fd5b505afa1580156107b7573d6000803e3d6000fd5b505050506040513d601f19601f820116820180604052508101906107db9190613a70565b115b6107f95760405162461bcd60e51b81526004016106639061406d565b856108515761080a81886000612db5565b95506103e861082f61081b88612e4f565b60208401516001600160801b031690612e7c565b6001600160801b0316101561084c57600080945094505050610abb565b610860565b61085d81876001612eb1565b96505b6001600160a01b0389163014158061087f57506001600160a01b038a16155b806108a7575080516108a3906001600160801b031661089d84612f30565b90612fd8565b8711155b6108c35760405162461bcd60e51b815260040161066390613f32565b6001600160a01b038083166000908152600660209081526040808320938c16835292905220546108f39087612ffb565b6001600160a01b038084166000908152600660209081526040808320938d168352929052205561093961092587612e4f565b60208301516001600160801b031690612e7c565b6001600160801b0316602082015261096461095388612e4f565b82516001600160801b031690612e7c565b6001600160801b0390811682526001600160a01b03808416600090815260076020908152604090912084518154928601518516600160801b029085166001600160801b031990931692909217909316179091558a16610a36577f00000000000000000000000000000000000000000000000000000000000000006001600160a01b031663d0e30db0886040518263ffffffff1660e01b81526004016000604051808303818588803b158015610a1857600080fd5b505af1158015610a2c573d6000803e3d6000fd5b5050505050610a5b565b6001600160a01b0389163014610a5b57610a5b6001600160a01b0383168a308a61301e565b876001600160a01b0316896001600160a01b0316836001600160a01b03167fb2346165e782564f17f5b7e555c21f4fd96fbc93458572bf0113ea35a958fc558a8a604051610aaa929190614553565b60405180910390a486945085935050505b509550959350505050565b6000546001600160a01b03163314610af05760405162461bcd60e51b8152600401610663906141a4565b8115610b8b576001600160a01b038316151580610b0a5750805b610b265760405162461bcd60e51b81526004016106639061403e565b600080546040516001600160a01b03808716939216917f8be0079c531659141344cd1fd0a4f28419497f9722a3daafe3b4186f6b6457e091a3600080546001600160a01b0385166001600160a01b031991821617909155600180549091169055610ba7565b600180546001600160a01b0319166001600160a01b0385161790555b505050565b846001600160a01b0381163314801590610bcf57506001600160a01b0381163014155b15610c5157336000908152600260205260409020546001600160a01b031680610c0a5760405162461bcd60e51b815260040161066390614356565b6001600160a01b0380821660009081526003602090815260408083209386168352929052205460ff16610c4f5760405162461bcd60e51b8152600401610663906141d9565b505b600085858281610c5d57fe5b9050602002016020810190610c7291906134b0565b6001600160a01b03161415610c995760405162461bcd60e51b815260040161066390614108565b600084815b81811015610df5576000888883818110610cb457fe5b9050602002016020810190610cc991906134b0565b9050610d38878784818110610cda57fe5b90506020020135600660008e6001600160a01b03166001600160a01b031681526020019081526020016000206000846001600160a01b03166001600160a01b0316815260200190815260200160002054612ffb90919063ffffffff16565b6001600160a01b03808d16600090815260066020908152604080832093861683529290522055610d83878784818110610d6d57fe5b9050602002013585612ffb90919063ffffffff16565b9350806001600160a01b03168a6001600160a01b03168c6001600160a01b03167f6eabe333476233fd382224f233210cb808a7bc4c4de64f9d76628bf63c677b1a8a8a87818110610dd057fe5b90506020020135604051610de49190613e5d565b60405180910390a450600101610c9e565b506001600160a01b03808a166000908152600660209081526040808320938c1683529290522054610e269083612fd8565b6001600160a01b03998a1660009081526006602090815260408083209b909c16825299909952989097209790975550505050505050565b60046020526000908152604090205460ff1681565b60006001600160a01b038516610e9a5760405162461bcd60e51b8152600401610663906142ea565b606085901b8215610f0c5760008585604051610eb7929190613bc3565b60405180910390209050604051733d602d80600a3d3981f3363d3d373d3d3d363d7360601b81528260148201526e5af43d82803e903d91602b57fd5bf360881b6028820152816037826000f593505050610f51565b604051733d602d80600a3d3981f3363d3d373d3d3d363d7360601b81528160148201526e5af43d82803e903d91602b57fd5bf360881b60288201526037816000f09250505b6001600160a01b038281166000818152600260205260409081902080546001600160a01b031916938a16939093179092559051631377d1f560e21b8152634ddf47d4903490610fa69089908990600401613edc565b6000604051808303818588803b158015610fbf57600080fd5b505af1158015610fd3573d6000803e3d6000fd5b5050505050816001600160a01b0316866001600160a01b03167fd62166f3c2149208e51788b1401cc356bf5da1fc6c7886a32e18570f57d88b3b878760405161101d929190613edc565b60405180910390a350949350505050565b6008602052600090815260409020546001600160a01b031681565b6000467f000000000000000000000000000000000000000000000000000000000000000081146110815761107c81613117565b6110a3565b7f00000000000000000000000000000000000000000000000000000000000000005b91505090565b6000546001600160a01b031633146110d35760405162461bcd60e51b8152600401610663906141a4565b605f816001600160401b031611156110fd5760405162461bcd60e51b8152600401610663906144ce565b6001600160a01b0382166000818152600a602052604090819020805467ffffffffffffffff60401b1916600160401b6001600160401b03861602179055517f7543af99b5602c06e62da0631b5308489a5ff859150105a623b6eb15e8deae0b90611168908490614561565b60405180910390a25050565b6001546001600160a01b031633811461119f5760405162461bcd60e51b815260040161066390614210565b600080546040516001600160a01b03808516939216917f8be0079c531659141344cd1fd0a4f28419497f9722a3daafe3b4186f6b6457e091a3600080546001600160a01b039092166001600160a01b0319928316179055600180549091169055565b6007602052600090815260409020546001600160801b0380821691600160801b90041682565b6009602052600090815260409020546001600160a01b031681565b6001600160a01b03831660009081526007602090815260408083208151808301909252546001600160801b038082168352600160801b909104169181019190915261128e908484612eb1565b949350505050565b61129e6133ed565b506001600160a01b038381166000818152600a60209081526040808320815160608101835290546001600160401b038082168352600160401b82041682850152600160801b90046001600160801b031681830190815294845260089092528083205493519051630c7e663b60e11b81529194939093169283916318fccc769161132b913390600401614517565b602060405180830381600087803b15801561134557600080fd5b505af1158015611359573d6000803e3d6000fd5b505050506040513d601f19601f8201168201806040525081019061137d9190613a70565b90508015801561138b575084155b1561139857505050610ba7565b6001600160a01b0386166000908152600760205260408120546001600160801b03169082131561144e57816113cd8282612ffb565b91506113d882612e4f565b6001600160a01b0389166000818152600760205260409081902080546001600160801b0319166001600160801b03949094169390931790925590517f911c9f20a03edabcbcbd18dca1174cce47a91b234ced7a5a3c60ba0d5b56c5d290611440908490613e5d565b60405180910390a25061151c565b600082121561151c5760008290036114668282612fd8565b915061147182612e4f565b6001600160a01b038916600090815260076020526040902080546001600160801b0319166001600160801b03929092169190911790556114c76114b382612e4f565b60408701516001600160801b03169061318e565b6001600160801b0316604080870191909152516001600160a01b038916907f8f1f26eb9b6aa8689dbdd519ead1999d9c8819d4738e403b2003b18197d9cf9790611512908490613e5d565b60405180910390a2505b85156117db576000606461154686602001516001600160401b0316846131bd90919063ffffffff16565b8161154d57fe5b0490508085604001516001600160801b0316101561168857600061158786604001516001600160801b031683612fd890919063ffffffff16565b9050861580159061159757508681115b1561159f5750855b6115b36001600160a01b038a1686836131f4565b6115d36115bf82612e4f565b60408801516001600160801b031690612e7c565b6001600160801b031660408088019190915251636939aaf560e01b81526001600160a01b03861690636939aaf59061160f908490600401613e5d565b600060405180830381600087803b15801561162957600080fd5b505af115801561163d573d6000803e3d6000fd5b50505050886001600160a01b03167fb18e7e4f6eac147a63a3bb6beb2d9039c88698623aff3efc4febbc20b0164ee58260405161167a9190613e5d565b60405180910390a2506117d9565b8085604001516001600160801b031611156117d95760006116bf6116ab83612e4f565b60408801516001600160801b03169061318e565b6001600160801b0316905086158015906116d857508681115b156116e05750855b604051632e1a7d4d60e01b81526000906001600160a01b03871690632e1a7d4d9061170f908590600401613e5d565b602060405180830381600087803b15801561172957600080fd5b505af115801561173d573d6000803e3d6000fd5b505050506040513d601f19601f820116820180604052508101906117619190613a70565b905061178361176f82612e4f565b60408901516001600160801b03169061318e565b6001600160801b0316604080890191909152516001600160a01b038b16907f39aa22060f8dd4d291720311feedf3b72fef47c06c66ccf5c22b502c62e7550a906117ce908490613e5d565b60405180910390a250505b505b5050506001600160a01b0384166000908152600a6020908152604091829020835181549285015193909401516001600160801b03908116600160801b026001600160401b03948516600160401b0267ffffffffffffffff60401b199590961667ffffffffffffffff1990941693909317939093169390931791909116179055505050565b6000546001600160a01b031633146118895760405162461bcd60e51b8152600401610663906141a4565b6118916133ed565b506001600160a01b038281166000818152600a60209081526040808320815160608101835290546001600160401b038082168352600160401b8204811683860152600160801b9091046001600160801b0316828401529484526009909252909120548151919316911615806119185750826001600160a01b0316816001600160a01b031614155b156119a2576001600160a01b03848116600090815260096020526040902080546001600160a01b0319169185169190911790556119596212750042016132ea565b6001600160401b031682526040516001600160a01b0380851691908616907f6f7ccdf3f86039e5a1dcf6028bf7b4773cbf7a234716ba2e5392b12bb0f8558f90600090a3611c3d565b81516001600160401b0316158015906119c5575081516001600160401b03164210155b6119e15760405162461bcd60e51b81526004016106639061416d565b6001600160a01b038481166000908152600860205260409020541615611bc6576001600160a01b0380851660009081526008602052604080822054858201519151637f8661a160e01b815292931691637f8661a191611a4291600401614503565b602060405180830381600087803b158015611a5c57600080fd5b505af1158015611a70573d6000803e3d6000fd5b505050506040513d601f19601f82011682018060405250810190611a949190613a70565b90506000811315611b0b576001600160a01b03851660009081526007602052604090208190611ac39082613313565b50856001600160a01b03167f911c9f20a03edabcbcbd18dca1174cce47a91b234ced7a5a3c60ba0d5b56c5d282604051611afd9190613e5d565b60405180910390a250611b7f565b6000811215611b7f576001600160a01b03851660009081526007602052604081209082900390611b3b9082613357565b50856001600160a01b03167f8f1f26eb9b6aa8689dbdd519ead1999d9c8819d4738e403b2003b18197d9cf9782604051611b759190613e5d565b60405180910390a2505b846001600160a01b03167f39aa22060f8dd4d291720311feedf3b72fef47c06c66ccf5c22b502c62e7550a8460400151604051611bbc9190614503565b60405180910390a2505b6001600160a01b03808516600081815260086020908152604080832080548688166001600160a01b0319918216179091558388528782018490528484526009909252808320805490921690915551928616927f03e6352a885adc4cc54767592939c3b1bbd65685658c3beaaba66a888120e2179190a35b506001600160a01b03929092166000908152600a60209081526040918290208451815492860151939095015167ffffffffffffffff199092166001600160401b039586161767ffffffffffffffff60401b1916600160401b9590931694909402919091176001600160801b03908116600160801b91909216021790915550565b6000546001600160a01b03163314611ce75760405162461bcd60e51b8152600401610663906141a4565b6001600160a01b038216611d0d5760405162461bcd60e51b815260040161066390613f69565b6001600160a01b03821660008181526004602052604090819020805460ff1916841515179055517f31a1e0eac44b54ac6c2a2efa87e92c83405ffcf33fceef02a7bca695130e260090611168908490613e52565b60405163d505accf60e01b81526001600160a01b0389169063d505accf90611d99908a908a908a908a908a908a908a90600401613d5e565b600060405180830381600087803b158015611db357600080fd5b505af1158015611dc7573d6000803e3d6000fd5b505050505050505050505050565b60056020526000908152604090205481565b6000546001600160a01b031681565b600360209081526000928352604080842090915290825290205460ff1681565b600080856001600160a01b0381163314801590611e3c57506001600160a01b0381163014155b15611ebe57336000908152600260205260409020546001600160a01b031680611e775760405162461bcd60e51b815260040161066390614356565b6001600160a01b0380821660009081526003602090815260408083209386168352929052205460ff16611ebc5760405162461bcd60e51b8152600401610663906141d9565b505b6001600160a01b038616611ee45760405162461bcd60e51b81526004016106639061413f565b60006001600160a01b03891615611efb5788611f1d565b7f00000000000000000000000000000000000000000000000000000000000000005b9050611f276133d6565b506001600160a01b0381166000908152600760209081526040918290208251808401909352546001600160801b038082168452600160801b909104169082015285611f7f57611f7881886001612db5565b9550611f8e565b611f8b81876000612eb1565b96505b6001600160a01b038083166000908152600660209081526040808320938d1683529290522054611fbe9087612fd8565b6001600160a01b038084166000908152600660209081526040808320938e1683529290522055612001611ff088612e4f565b82516001600160801b03169061318e565b6001600160801b0316815261202c61201887612e4f565b60208301516001600160801b03169061318e565b6001600160801b0316602082018190526103e8111580612057575060208101516001600160801b0316155b6120735760405162461bcd60e51b81526004016106639061400e565b6001600160a01b03828116600090815260076020908152604090912083518154928501516001600160801b03199093166001600160801b03918216178116600160801b91909316029190911790558a166121c757604051632e1a7d4d60e01b81526001600160a01b037f00000000000000000000000000000000000000000000000000000000000000001690632e1a7d4d90612113908a90600401613e5d565b600060405180830381600087803b15801561212d57600080fd5b505af1158015612141573d6000803e3d6000fd5b505050506000886001600160a01b03168860405161215e90613c16565b60006040518083038185875af1925050503d806000811461219b576040519150601f19603f3d011682016040523d82523d6000602084013e6121a0565b606091505b50509050806121c15760405162461bcd60e51b815260040161066390614460565b506121db565b6121db6001600160a01b03831689896131f4565b876001600160a01b0316896001600160a01b0316836001600160a01b03167fad9ab9ee6953d4d177f4a03b3a3ac3178ffcb9816319f348060194aa76b144868a8a604051610aaa929190614553565b3360008181526002602052604080822080546001600160a01b03191684179055517fdfb44ffabf0d3a8f650d3ce43eff98f6d050e7ea1a396d5794f014e7dadabacb9190a2565b6002602052600090815260409020546001600160a01b031681565b6001600160a01b0385166122b25760405162461bcd60e51b81526004016106639061431f565b811580156122be575080155b80156122cb575060ff8316155b1561236d576001600160a01b03861633146122f85760405162461bcd60e51b815260040161066390613fa0565b6001600160a01b0386811660009081526002602052604090205416156123305760405162461bcd60e51b81526004016106639061427c565b6001600160a01b03851660009081526004602052604090205460ff166123685760405162461bcd60e51b815260040161066390614429565b612527565b6001600160a01b0386166123935760405162461bcd60e51b8152600401610663906143c2565b600060405180604001604052806002815260200161190160f01b8152506123b8611049565b7f1962bc9f5484cb7a998701b81090e966ee1fce5771af884cceee7c081b14ade287612404577fb426802f1f7dc850a7b6b38805edea2442f3992878a9ab985abfe8091d95d0b1612426565b7f422ac5323fe049241dee67716229a1cc1bc7b313b23dfe3ef6d42ab177a3b2845b6001600160a01b038b1660009081526005602090815260409182902080546001810190915591516124609493928e928e928e929101613e66565b6040516020818303038152906040528051906020012060405160200161248893929190613bef565b6040516020818303038152906040528051906020012090506000600182868686604051600081526020016040526040516124c59493929190613ebe565b6020604051602081039080840390855afa1580156124e7573d6000803e3d6000fd5b505050602060405103519050876001600160a01b0316816001600160a01b0316146125245760405162461bcd60e51b8152600401610663906142b3565b50505b6001600160a01b038581166000818152600360209081526040808320948b168084529490915290819020805460ff1916881515179055517f5f6ebb64ba012a851c6f014e6cad458ddf213d1512049b31cd06365c2b0592579061258b908890613e52565b60405180910390a3505050505050565b606080836001600160401b03811180156125b457600080fd5b506040519080825280602002602001820160405280156125de578160200160208202803683370190505b509150836001600160401b03811180156125f757600080fd5b5060405190808252806020026020018201604052801561262b57816020015b60608152602001906001900390816126165790505b50905060005b8481101561272257600060603088888581811061264a57fe5b905060200281019061265c91906145a1565b60405161266a929190613bc3565b600060405180830381855af49150503d80600081146126a5576040519150601f19603f3d011682016040523d82523d6000602084013e6126aa565b606091505b509150915081806126b9575085155b6126c282613376565b906126e05760405162461bcd60e51b81526004016106639190613ef0565b50818584815181106126ee57fe5b6020026020010190151590811515815250508084848151811061270d57fe5b60209081029190910101525050600101612631565b50935093915050565b6001600160a01b03831660009081526007602090815260408083208151808301909252546001600160801b038082168352600160801b909104169181019190915261128e908484612db5565b600a602052600090815260409020546001600160401b0380821691600160401b810490911690600160801b90046001600160801b031683565b6001546001600160a01b031681565b6000620186a06127d08560326131bd565b816127d757fe5b0490506127ee6001600160a01b03861687866131f4565b6040516323e30c8b60e01b81526001600160a01b038816906323e30c8b906128249033908990899087908a908a90600401613cf3565b600060405180830381600087803b15801561283e57600080fd5b505af1158015612852573d6000803e3d6000fd5b5050505061288961286282612e4f565b6001600160a01b0387166000908152600760205260409020906001600160801b0316613313565b61289286612f30565b10156128b05760405162461bcd60e51b8152600401610663906143f9565b856001600160a01b0316856001600160a01b0316886001600160a01b03167f3be9b85936d5d30a1655ea116a17ee3d827b2cd428cc026ce5bf2ac46a22320487856040516128ff929190614553565b60405180910390a450505050505050565b826001600160a01b038116331480159061293357506001600160a01b0381163014155b156129b557336000908152600260205260409020546001600160a01b03168061296e5760405162461bcd60e51b815260040161066390614356565b6001600160a01b0380821660009081526003602090815260408083209386168352929052205460ff166129b35760405162461bcd60e51b8152600401610663906141d9565b505b6001600160a01b0383166129db5760405162461bcd60e51b81526004016106639061413f565b6001600160a01b03808616600090815260066020908152604080832093881683529290522054612a0b9083612fd8565b6001600160a01b03868116600090815260066020908152604080832089851684529091528082209390935590851681522054612a479083612ffb565b6001600160a01b0380871660008181526006602090815260408083208986168085529252918290209490945551918716917f6eabe333476233fd382224f233210cb808a7bc4c4de64f9d76628bf63c677b1a90612aa5908790613e5d565b60405180910390a45050505050565b6060856001600160401b0381118015612acc57600080fd5b50604051908082528060200260200182016040528015612af6578160200160208202803683370190505b5090508560005b81811015612bc5576000878783818110612b1357fe5b905060200201359050620186a0612b346032836131bd90919063ffffffff16565b81612b3b57fe5b04848381518110612b4857fe5b602002602001018181525050612bbc8c8c84818110612b6357fe5b9050602002016020810190612b7891906134b0565b898985818110612b8457fe5b905060200201358c8c86818110612b9757fe5b9050602002016020810190612bac91906134b0565b6001600160a01b031691906131f4565b50600101612afd565b5060405163d9d1762360e01b81526001600160a01b038c169063d9d1762390612c009033908c908c908c908c908a908d908d90600401613c2d565b600060405180830381600087803b158015612c1a57600080fd5b505af1158015612c2e573d6000803e3d6000fd5b5050505060005b81811015611dc7576000898983818110612c4b57fe5b9050602002016020810190612c6091906134b0565b9050612ca8612c81858481518110612c7457fe5b6020026020010151612e4f565b6001600160a01b0383166000908152600760205260409020906001600160801b0316613313565b612cb182612f30565b1015612ccf5760405162461bcd60e51b8152600401610663906143f9565b8b8b83818110612cdb57fe5b9050602002016020810190612cf091906134b0565b6001600160a01b0316816001600160a01b03168e6001600160a01b03167f3be9b85936d5d30a1655ea116a17ee3d827b2cd428cc026ce5bf2ac46a2232048b8b87818110612d3a57fe5b90506020020135888781518110612d4d57fe5b6020026020010151604051612d63929190614553565b60405180910390a450600101612c35565b600660209081526000928352604080842090915290825290205481565b60408051808201909152600a81526942656e746f426f78563160b01b602082015290565b82516000906001600160801b0316612dce575081612e48565b835160208501516001600160801b0391821691612ded918691166131bd565b81612df457fe5b049050818015612e3857508284602001516001600160801b0316612e2e86600001516001600160801b0316846131bd90919063ffffffff16565b81612e3557fe5b04105b15612e485761128e816001612ffb565b9392505050565b60006001600160801b03821115612e785760405162461bcd60e51b81526004016106639061409a565b5090565b8181016001600160801b038083169082161015612eab5760405162461bcd60e51b8152600401610663906140d1565b92915050565b600083602001516001600160801b031660001415612ed0575081612e48565b602084015184516001600160801b0391821691612eef918691166131bd565b81612ef657fe5b049050818015612e3857508284600001516001600160801b0316612e2e86602001516001600160801b0316846131bd90919063ffffffff16565b6001600160a01b0381166000818152600a60205260408082205490516370a0823160e01b81529192612eab92600160801b9092046001600160801b0316916370a0823190612f82903090600401613c19565b60206040518083038186803b158015612f9a57600080fd5b505afa158015612fae573d6000803e3d6000fd5b505050506040513d601f19601f82011682018060405250810190612fd29190613a70565b90612ffb565b80820382811115612eab5760405162461bcd60e51b815260040161066390613f03565b81810181811015612eab5760405162461bcd60e51b8152600401610663906140d1565b60006060856001600160a01b03166323b872dd60e01b86868660405160240161304993929190613d3a565b60408051601f198184030181529181526020820180516001600160e01b03166001600160e01b03199094169390931790925290516130879190613bd3565b6000604051808303816000865af19150503d80600081146130c4576040519150601f19603f3d011682016040523d82523d6000602084013e6130c9565b606091505b50915091508180156130f35750805115806130f35750808060200190518101906130f39190613695565b61310f5760405162461bcd60e51b81526004016106639061438d565b505050505050565b60007f8cad95687ba82c2ce50e74f7b754645e5117c3a5bec8151c0726d5857980a8667fd7df266aff736d415a9dc14b4158201d612e70d75b9c7f4e375ccfd20aa5166f83306040516020016131709493929190613e9a565b6040516020818303038152906040528051906020012090505b919050565b8082036001600160801b038084169082161115612eab5760405162461bcd60e51b815260040161066390613f03565b60008115806131d8575050808202828282816131d557fe5b04145b612eab5760405162461bcd60e51b815260040161066390614497565b60006060846001600160a01b031663a9059cbb60e01b858560405160240161321d929190613d9f565b60408051601f198184030181529181526020820180516001600160e01b03166001600160e01b031990941693909317909252905161325b9190613bd3565b6000604051808303816000865af19150503d8060008114613298576040519150601f19603f3d011682016040523d82523d6000602084013e61329d565b606091505b50915091508180156132c75750805115806132c75750808060200190518101906132c79190613695565b6132e35760405162461bcd60e51b815260040161066390613fd7565b5050505050565b60006001600160401b03821115612e785760405162461bcd60e51b815260040161066390614245565b600061333261332183612e4f565b84546001600160801b031690612e7c565b83546001600160801b0319166001600160801b03919091169081179093555090919050565b600061333261336583612e4f565b84546001600160801b03169061318e565b60606044825110156133bc575060408051808201909152601d81527f5472616e73616374696f6e2072657665727465642073696c656e746c790000006020820152613189565b60048201915081806020019051810190612eab9190613a88565b604080518082019091526000808252602082015290565b604080516060810182526000808252602082018190529181019190915290565b60008083601f84011261341e578182fd5b5081356001600160401b03811115613434578182fd5b602083019150836020808302850101111561344e57600080fd5b9250929050565b60008083601f840112613466578182fd5b5081356001600160401b0381111561347c578182fd5b60208301915083602082850101111561344e57600080fd5b8035612eab81614621565b803560ff81168114612eab57600080fd5b6000602082840312156134c1578081fd5b8135612e4881614621565b600080604083850312156134de578081fd5b82356134e981614621565b915060208301356134f981614621565b809150509250929050565b60008060008060008060c0878903121561351c578182fd5b863561352781614621565b9550602087013561353781614621565b9450604087013561354781614639565b9350613556886060890161349f565b92506080870135915060a087013590509295509295509295565b60008060408385031215613582578182fd5b823561358d81614621565b915060208301356134f981614639565b6000806000606084860312156135b1578283fd5b83356135bc81614621565b925060208401356135cc81614639565b915060408401356135dc81614639565b809150509250925092565b600080600080606085870312156135fc578384fd5b843561360781614621565b935060208501356001600160401b03811115613621578384fd5b61362d87828801613455565b909450925050604085013561364181614639565b939692955090935050565b600080600060408486031215613660578081fd5b83356001600160401b03811115613675578182fd5b6136818682870161340d565b90945092505060208401356135dc81614639565b6000602082840312156136a6578081fd5b8151612e4881614639565b600080600080600080600080600060a08a8c0312156136ce578687fd5b89356136d981614621565b985060208a01356001600160401b03808211156136f4578889fd5b6137008d838e0161340d565b909a50985060408c0135915080821115613718578485fd5b6137248d838e0161340d565b909850965060608c013591508082111561373c578485fd5b6137488d838e0161340d565b909650945060808c0135915080821115613760578384fd5b5061376d8c828d01613455565b915080935050809150509295985092959850929598565b600080604083850312156134de578182fd5b600080600080608085870312156137ab578182fd5b84356137b681614621565b935060208501356137c681614621565b925060408501356137d681614621565b9396929550929360600135925050565b600080600080600060a086880312156137fd578283fd5b853561380881614621565b9450602086013561381881614621565b9350604086013561382881614621565b94979396509394606081013594506080013592915050565b600080600080600080600080610100898b03121561385c578182fd5b883561386781614621565b9750602089013561387781614621565b9650604089013561388781614621565b955060608901359450608089013593506138a48a60a08b0161349f565b925060c0890135915060e089013590509295985092959890939650565b600080600080600080608087890312156138d9578384fd5b86356138e481614621565b955060208701356138f481614621565b945060408701356001600160401b038082111561390f578586fd5b61391b8a838b0161340d565b90965094506060890135915080821115613933578384fd5b5061394089828a0161340d565b979a9699509497509295939492505050565b600080600060608486031215613966578081fd5b833561397181614621565b9250602084013561398181614639565b929592945050506040919091013590565b6000806000606084860312156139a6578081fd5b83356139b181614621565b92506020840135915060408401356135dc81614639565b600080604083850312156139da578182fd5b82356139e581614621565b915060208301356001600160401b03811681146134f9578182fd5b60008060008060008060a08789031215613a18578384fd5b8635613a2381614621565b95506020870135613a3381614621565b94506040870135613a4381614621565b93506060870135925060808701356001600160401b03811115613a64578283fd5b61394089828a01613455565b600060208284031215613a81578081fd5b5051919050565b600060208284031215613a99578081fd5b81516001600160401b0380821115613aaf578283fd5b818401915084601f830112613ac2578283fd5b815181811115613ad0578384fd5b604051601f8201601f191681016020018381118282101715613af0578586fd5b604052818152838201602001871015613b07578485fd5b613b188260208301602087016145f1565b9695505050505050565b6001600160a01b0316815260200190565b6000815180845260208085019450808401835b83811015613b6257815187529582019590820190600101613b46565b509495945050505050565b60008284528282602086013780602084860101526020601f19601f85011685010190509392505050565b60008151808452613baf8160208601602086016145f1565b601f01601f19169290920160200192915050565b6000828483379101908152919050565b60008251613be58184602087016145f1565b9190910192915050565b60008451613c018184602089016145f1565b91909101928352506020820152604001919050565b90565b6001600160a01b0391909116815260200190565b6001600160a01b038916815260a0602080830182905260009183019081613c548b82613e5d565b90508b9250835b8b811015613c8657828401613c7983613c748388613494565b613b22565b9094509150600101613c5b565b508481036040860152613c998982613e5d565b9250506001600160fb1b03881115613caf578283fd5b8702613cbc81838b6145e5565b018281036060840152613ccf8187613b33565b90508281036080840152613ce4818587613b6d565b9b9a5050505050505050505050565b6001600160a01b03878116825286166020820152604081018590526060810184905260a060808201819052600090613d2e9083018486613b6d565b98975050505050505050565b6001600160a01b039384168152919092166020820152604081019190915260600190565b6001600160a01b0397881681529590961660208601526040850193909352606084019190915260ff16608083015260a082015260c081019190915260e00190565b6001600160a01b03929092168252602082015260400190565b604080825283519082018190526000906020906060840190828701845b82811015613df3578151151584529284019290840190600101613dd5565b50505083810382850152808551613e0a8184613e5d565b91508192508381028201848801865b83811015613e43578583038552613e31838351613b97565b94870194925090860190600101613e19565b50909998505050505050505050565b901515815260200190565b90815260200190565b95865260208601949094526001600160a01b039283166040860152911660608401521515608083015260a082015260c00190565b938452602084019290925260408301526001600160a01b0316606082015260800190565b93845260ff9290921660208401526040830152606082015260800190565b60006020825261128e602083018486613b6d565b600060208252612e486020830184613b97565b602080825260159082015274426f72696e674d6174683a20556e646572666c6f7760581b604082015260600190565b60208082526017908201527f42656e746f426f783a20536b696d20746f6f206d756368000000000000000000604082015260600190565b6020808252601c908201527f4d6173746572434d67723a2043616e6e6f7420617070726f7665203000000000604082015260600190565b6020808252601b908201527f4d6173746572434d67723a2075736572206e6f742073656e6465720000000000604082015260600190565b6020808252601c908201527f426f72696e6745524332303a205472616e73666572206661696c656400000000604082015260600190565b60208082526016908201527542656e746f426f783a2063616e6e6f7420656d70747960501b604082015260600190565b6020808252601590820152744f776e61626c653a207a65726f206164647265737360581b604082015260600190565b60208082526013908201527242656e746f426f783a204e6f20746f6b656e7360681b604082015260600190565b6020808252601c908201527f426f72696e674d6174683a2075696e74313238204f766572666c6f7700000000604082015260600190565b60208082526018908201527f426f72696e674d6174683a20416464204f766572666c6f770000000000000000604082015260600190565b60208082526017908201527f42656e746f426f783a20746f5b305d206e6f7420736574000000000000000000604082015260600190565b60208082526014908201527310995b9d1bd09bde0e881d1bc81b9bdd081cd95d60621b604082015260600190565b6020808252601a908201527f53747261746567794d616e616765723a20546f6f206561726c79000000000000604082015260600190565b6020808252818101527f4f776e61626c653a2063616c6c6572206973206e6f7420746865206f776e6572604082015260600190565b6020808252601f908201527f42656e746f426f783a205472616e73666572206e6f7420617070726f76656400604082015260600190565b6020808252818101527f4f776e61626c653a2063616c6c657220213d2070656e64696e67206f776e6572604082015260600190565b6020808252601b908201527f426f72696e674d6174683a2075696e743634204f766572666c6f770000000000604082015260600190565b60208082526019908201527f4d6173746572434d67723a207573657220697320636c6f6e6500000000000000604082015260600190565b6020808252601d908201527f4d6173746572434d67723a20496e76616c6964205369676e6174757265000000604082015260600190565b6020808252818101527f426f72696e67466163746f72793a204e6f206d6173746572436f6e7472616374604082015260600190565b6020808252601b908201527f4d6173746572434d67723a206d617374657243206e6f74207365740000000000604082015260600190565b6020808252601b908201527f42656e746f426f783a206e6f206d6173746572436f6e74726163740000000000604082015260600190565b6020808252818101527f426f72696e6745524332303a205472616e7366657246726f6d206661696c6564604082015260600190565b6020808252601c908201527f4d6173746572434d67723a20557365722063616e6e6f74206265203000000000604082015260600190565b60208082526016908201527510995b9d1bd09bde0e8815dc9bdb99c8185b5bdd5b9d60521b604082015260600190565b6020808252601b908201527f4d6173746572434d67723a206e6f742077686974656c69737465640000000000604082015260600190565b6020808252601d908201527f42656e746f426f783a20455448207472616e73666572206661696c6564000000604082015260600190565b60208082526018908201527f426f72696e674d6174683a204d756c204f766572666c6f770000000000000000604082015260600190565b6020808252818101527f53747261746567794d616e616765723a2054617267657420746f6f2068696768604082015260600190565b6001600160801b0391909116815260200190565b6001600160801b039290921682526001600160a01b0316602082015260400190565b6001600160801b0392831681529116602082015260400190565b918252602082015260400190565b6001600160401b0391909116815260200190565b6001600160401b0393841681529190921660208201526001600160801b03909116604082015260600190565b6000808335601e198436030181126145b7578283fd5b8301803591506001600160401b038211156145d0578283fd5b60200191503681900382131561344e57600080fd5b82818337506000910152565b60005b8381101561460c5781810151838201526020016145f4565b8381111561461b576000848401525b50505050565b6001600160a01b038116811461463657600080fd5b50565b801515811461463657600080fdfea26469706673582212209772c2866d1325e8aebc405a91803ba4155c164369e5271794803472a65b033d64736f6c634300060c0033",
  "devdoc": {
    "author": "BoringCrypto, Keno",
    "kind": "dev",
    "methods": {
      "batch(bytes[],bool)": {
        "params": {
          "calls": "An array of inputs for each call.",
          "revertOnFail": "If True then reverts after a failed call and stops doing further calls."
        },
        "returns": {
          "results": "An array with the returned data of each function call, mapped one-to-one to `calls`.",
          "successes": "An array indicating the success of a call, mapped one-to-one to `calls`."
        }
      },
      "batchFlashLoan(address,address[],address[],uint256[],bytes)": {
        "params": {
          "amounts": "of the tokens for each receiver.",
          "borrower": "The address of the contract that implements and conforms to `IBatchFlashBorrower` and handles the flashloan.",
          "data": "The calldata to pass to the `borrower` contract.",
          "receivers": "An array of the token receivers. A one-to-one mapping with `tokens` and `amounts`.",
          "tokens": "The addresses of the tokens."
        }
      },
      "deploy(address,bytes,bool)": {
        "params": {
          "data": "Additional abi encoded calldata that is passed to the new clone via `IMasterContract.init`.",
          "masterContract": "The address of the contract to clone.",
          "useCreate2": "Creates the clone by using the CREATE2 opcode, in this case `data` will be used as salt."
        },
        "returns": {
          "cloneAddress": "Address of the created clone contract."
        }
      },
      "deposit(address,address,address,uint256,uint256)": {
        "params": {
          "amount": "Token amount in native representation to deposit.",
          "from": "which account to pull the tokens.",
          "share": "Token amount represented in shares to deposit. Takes precedence over `amount`.",
          "to": "which account to push the tokens.",
          "token_": "The ERC-20 token to deposit."
        },
        "returns": {
          "amountOut": "The amount deposited.",
          "shareOut": "The deposited amount repesented in shares."
        }
      },
      "flashLoan(address,address,address,uint256,bytes)": {
        "params": {
          "amount": "of the tokens to receive.",
          "borrower": "The address of the contract that implements and conforms to `IFlashBorrower` and handles the flashloan.",
          "data": "The calldata to pass to the `borrower` contract.",
          "receiver": "Address of the token receiver.",
          "token": "The address of the token to receive."
        }
      },
      "harvest(address,bool,uint256)": {
        "params": {
          "balance": "True if housekeeping should be done.",
          "maxChangeAmount": "The maximum amount for either pulling or pushing from/to the `IStrategy` contract.",
          "token": "The address of the token for which a strategy is deployed."
        }
      },
      "setMasterContractApproval(address,address,bool,uint8,bytes32,bytes32)": {
        "params": {
          "approved": "If True approves access. If False revokes access.",
          "masterContract": "The address who gains or loses access.",
          "r": "Part of the signature. (See EIP-191)",
          "s": "Part of the signature. (See EIP-191)",
          "user": "The address of the user that approves or revokes access.",
          "v": "Part of the signature. (See EIP-191)"
        }
      },
      "setStrategy(address,address)": {
        "details": "Only the owner of this contract is allowed to change this.",
        "params": {
          "newStrategy": "The address of the contract that conforms to `IStrategy`.",
          "token": "The address of the token that maps to a strategy to change."
        }
      },
      "setStrategyTargetPercentage(address,uint64)": {
        "details": "Only the owner of this contract is allowed to change this.",
        "params": {
          "targetPercentage_": "The new target in percent. Must be lesser or equal to `MAX_TARGET_PERCENTAGE`.",
          "token": "The address of the token that maps to a strategy to change."
        }
      },
      "toAmount(address,uint256,bool)": {
        "details": "Helper function represent shares back into the `token` amount.",
        "params": {
          "roundUp": "If the result should be rounded up.",
          "share": "The amount of shares.",
          "token": "The ERC-20 token."
        },
        "returns": {
          "amount": "The share amount back into native representation."
        }
      },
      "toShare(address,uint256,bool)": {
        "details": "Helper function to represent an `amount` of `token` in shares.",
        "params": {
          "amount": "The `token` amount.",
          "roundUp": "If the result `share` should be rounded up.",
          "token": "The ERC-20 token."
        },
        "returns": {
          "share": "The token amount represented in shares."
        }
      },
      "transfer(address,address,address,uint256)": {
        "params": {
          "from": "which user to pull the tokens.",
          "share": "The amount of `token` in shares.",
          "to": "which user to push the tokens.",
          "token": "The ERC-20 token to transfer."
        }
      },
      "transferMultiple(address,address,address[],uint256[])": {
        "params": {
          "from": "which user to pull the tokens.",
          "shares": "The amount of `token` in shares for each receiver in `tos`.",
          "token": "The ERC-20 token to transfer.",
          "tos": "The receivers of the tokens."
        }
      },
      "transferOwnership(address,bool,bool)": {
        "params": {
          "direct": "True if `newOwner` should be set immediately. False if `newOwner` needs to use `claimOwnership`.",
          "newOwner": "Address of the new owner.",
          "renounce": "Allows the `newOwner` to be `address(0)` if `direct` and `renounce` is True. Has no effect otherwise."
        }
      },
      "withdraw(address,address,address,uint256,uint256)": {
        "params": {
          "amount": "of tokens. Either one of `amount` or `share` needs to be supplied.",
          "from": "which user to pull the tokens.",
          "share": "Like above, but `share` takes precedence over `amount`.",
          "to": "which user to push the tokens.",
          "token_": "The ERC-20 token to withdraw."
        }
      }
    },
    "title": "BentoBox",
    "version": 1
  },
  "userdoc": {
    "kind": "user",
    "methods": {
      "batch(bytes[],bool)": {
        "notice": "Allows batched call to self (this contract)."
      },
      "batchFlashLoan(address,address[],address[],uint256[],bytes)": {
        "notice": "Support for batched flashloans. Useful to request multiple different `tokens` in a single transaction."
      },
      "claimOwnership()": {
        "notice": "Needs to be called by `pendingOwner` to claim ownership."
      },
      "deploy(address,bytes,bool)": {
        "notice": "Deploys a given master Contract as a clone. Any ETH transferred with this call is forwarded to the new clone. Emits `LogDeploy`."
      },
      "deposit(address,address,address,uint256,uint256)": {
        "notice": "Deposit an amount of `token` represented in either `amount` or `share`."
      },
      "flashLoan(address,address,address,uint256,bytes)": {
        "notice": "Flashloan ability."
      },
      "harvest(address,bool,uint256)": {
        "notice": "The actual process of yield farming. Executes the strategy of `token`. Optionally does housekeeping if `balance` is true. `maxChangeAmount` is relevant for skimming or withdrawing if `balance` is true."
      },
      "masterContractApproved(address,address)": {
        "notice": "masterContract to user to approval state"
      },
      "masterContractOf(address)": {
        "notice": "Mapping from clone contracts to their masterContract."
      },
      "nonces(address)": {
        "notice": "user nonces for masterContract approvals"
      },
      "permitToken(address,address,address,uint256,uint256,uint8,bytes32,bytes32)": {
        "notice": "Call wrapper that performs `ERC20.permit` on `token`. Lookup `IERC20.permit`."
      },
      "registerProtocol()": {
        "notice": "Other contracts need to register with this master contract so that users can approve them for the BentoBox."
      },
      "setMasterContractApproval(address,address,bool,uint8,bytes32,bytes32)": {
        "notice": "Approves or revokes a `masterContract` access to `user` funds."
      },
      "setStrategy(address,address)": {
        "notice": "Sets the contract address of a new strategy that conforms to `IStrategy` for `token`. Must be called twice with the same arguments. A new strategy becomes pending first and can be activated once `STRATEGY_DELAY` is over."
      },
      "setStrategyTargetPercentage(address,uint64)": {
        "notice": "Sets the target percentage of the strategy for `token`."
      },
      "transfer(address,address,address,uint256)": {
        "notice": "Transfer shares from a user account to another one."
      },
      "transferMultiple(address,address,address[],uint256[])": {
        "notice": "Transfer shares from a user account to multiple other ones."
      },
      "transferOwnership(address,bool,bool)": {
        "notice": "Transfers ownership to `newOwner`. Either directly or claimable by the new pending owner. Can only be invoked by the current `owner`."
      },
      "whitelistMasterContract(address,bool)": {
        "notice": "Enables or disables a contract for approval without signed message."
      },
      "whitelistedMasterContracts(address)": {
        "notice": "masterContract to whitelisted state for approval without signed message"
      },
      "withdraw(address,address,address,uint256,uint256)": {
        "notice": "Withdraws an amount of `token` from a user account."
      }
    },
    "notice": "The BentoBox is a vault for tokens. The stored tokens can be flash loaned and used in strategies. Yield from this will go to the token depositors. Rebasing tokens ARE NOT supported and WILL cause loss of funds. Any funds transfered directly onto the BentoBox will be lost, use the deposit function instead.",
    "version": 1
  },
  "storageLayout": {
    "storage": [
      {
        "astId": 900,
        "contract": "contracts/BentoBoxFlat.sol:BentoBoxV1",
        "label": "owner",
        "offset": 0,
        "slot": "0",
        "type": "t_address"
      },
      {
        "astId": 902,
        "contract": "contracts/BentoBoxFlat.sol:BentoBoxV1",
        "label": "pendingOwner",
        "offset": 0,
        "slot": "1",
        "type": "t_address"
      },
      {
        "astId": 1046,
        "contract": "contracts/BentoBoxFlat.sol:BentoBoxV1",
        "label": "masterContractOf",
        "offset": 0,
        "slot": "2",
        "type": "t_mapping(t_address,t_address)"
      },
      {
        "astId": 1140,
        "contract": "contracts/BentoBoxFlat.sol:BentoBoxV1",
        "label": "masterContractApproved",
        "offset": 0,
        "slot": "3",
        "type": "t_mapping(t_address,t_mapping(t_address,t_bool))"
      },
      {
        "astId": 1145,
        "contract": "contracts/BentoBoxFlat.sol:BentoBoxV1",
        "label": "whitelistedMasterContracts",
        "offset": 0,
        "slot": "4",
        "type": "t_mapping(t_address,t_bool)"
      },
      {
        "astId": 1150,
        "contract": "contracts/BentoBoxFlat.sol:BentoBoxV1",
        "label": "nonces",
        "offset": 0,
        "slot": "5",
        "type": "t_mapping(t_address,t_uint256)"
      },
      {
        "astId": 1701,
        "contract": "contracts/BentoBoxFlat.sol:BentoBoxV1",
        "label": "balanceOf",
        "offset": 0,
        "slot": "6",
        "type": "t_mapping(t_contract(IERC20)67,t_mapping(t_address,t_uint256))"
      },
      {
        "astId": 1705,
        "contract": "contracts/BentoBoxFlat.sol:BentoBoxV1",
        "label": "totals",
        "offset": 0,
        "slot": "7",
        "type": "t_mapping(t_contract(IERC20)67,t_struct(Rebase)550_storage)"
      },
      {
        "astId": 1709,
        "contract": "contracts/BentoBoxFlat.sol:BentoBoxV1",
        "label": "strategy",
        "offset": 0,
        "slot": "8",
        "type": "t_mapping(t_contract(IERC20)67,t_contract(IStrategy)142)"
      },
      {
        "astId": 1713,
        "contract": "contracts/BentoBoxFlat.sol:BentoBoxV1",
        "label": "pendingStrategy",
        "offset": 0,
        "slot": "9",
        "type": "t_mapping(t_contract(IERC20)67,t_contract(IStrategy)142)"
      },
      {
        "astId": 1717,
        "contract": "contracts/BentoBoxFlat.sol:BentoBoxV1",
        "label": "strategyData",
        "offset": 0,
        "slot": "10",
        "type": "t_mapping(t_contract(IERC20)67,t_struct(StrategyData)1673_storage)"
      }
    ],
    "types": {
      "t_address": {
        "encoding": "inplace",
        "label": "address",
        "numberOfBytes": "20"
      },
      "t_bool": {
        "encoding": "inplace",
        "label": "bool",
        "numberOfBytes": "1"
      },
      "t_contract(IERC20)67": {
        "encoding": "inplace",
        "label": "contract IERC20",
        "numberOfBytes": "20"
      },
      "t_contract(IStrategy)142": {
        "encoding": "inplace",
        "label": "contract IStrategy",
        "numberOfBytes": "20"
      },
      "t_mapping(t_address,t_address)": {
        "encoding": "mapping",
        "key": "t_address",
        "label": "mapping(address => address)",
        "numberOfBytes": "32",
        "value": "t_address"
      },
      "t_mapping(t_address,t_bool)": {
        "encoding": "mapping",
        "key": "t_address",
        "label": "mapping(address => bool)",
        "numberOfBytes": "32",
        "value": "t_bool"
      },
      "t_mapping(t_address,t_mapping(t_address,t_bool))": {
        "encoding": "mapping",
        "key": "t_address",
        "label": "mapping(address => mapping(address => bool))",
        "numberOfBytes": "32",
        "value": "t_mapping(t_address,t_bool)"
      },
      "t_mapping(t_address,t_uint256)": {
        "encoding": "mapping",
        "key": "t_address",
        "label": "mapping(address => uint256)",
        "numberOfBytes": "32",
        "value": "t_uint256"
      },
      "t_mapping(t_contract(IERC20)67,t_contract(IStrategy)142)": {
        "encoding": "mapping",
        "key": "t_contract(IERC20)67",
        "label": "mapping(contract IERC20 => contract IStrategy)",
        "numberOfBytes": "32",
        "value": "t_contract(IStrategy)142"
      },
      "t_mapping(t_contract(IERC20)67,t_mapping(t_address,t_uint256))": {
        "encoding": "mapping",
        "key": "t_contract(IERC20)67",
        "label": "mapping(contract IERC20 => mapping(address => uint256))",
        "numberOfBytes": "32",
        "value": "t_mapping(t_address,t_uint256)"
      },
      "t_mapping(t_contract(IERC20)67,t_struct(Rebase)550_storage)": {
        "encoding": "mapping",
        "key": "t_contract(IERC20)67",
        "label": "mapping(contract IERC20 => struct Rebase)",
        "numberOfBytes": "32",
        "value": "t_struct(Rebase)550_storage"
      },
      "t_mapping(t_contract(IERC20)67,t_struct(StrategyData)1673_storage)": {
        "encoding": "mapping",
        "key": "t_contract(IERC20)67",
        "label": "mapping(contract IERC20 => struct BentoBoxV1.StrategyData)",
        "numberOfBytes": "32",
        "value": "t_struct(StrategyData)1673_storage"
      },
      "t_struct(Rebase)550_storage": {
        "encoding": "inplace",
        "label": "struct Rebase",
        "members": [
          {
            "astId": 547,
            "contract": "contracts/BentoBoxFlat.sol:BentoBoxV1",
            "label": "elastic",
            "offset": 0,
            "slot": "0",
            "type": "t_uint128"
          },
          {
            "astId": 549,
            "contract": "contracts/BentoBoxFlat.sol:BentoBoxV1",
            "label": "base",
            "offset": 16,
            "slot": "0",
            "type": "t_uint128"
          }
        ],
        "numberOfBytes": "32"
      },
      "t_struct(StrategyData)1673_storage": {
        "encoding": "inplace",
        "label": "struct BentoBoxV1.StrategyData",
        "members": [
          {
            "astId": 1668,
            "contract": "contracts/BentoBoxFlat.sol:BentoBoxV1",
            "label": "strategyStartDate",
            "offset": 0,
            "slot": "0",
            "type": "t_uint64"
          },
          {
            "astId": 1670,
            "contract": "contracts/BentoBoxFlat.sol:BentoBoxV1",
            "label": "targetPercentage",
            "offset": 8,
            "slot": "0",
            "type": "t_uint64"
          },
          {
            "astId": 1672,
            "contract": "contracts/BentoBoxFlat.sol:BentoBoxV1",
            "label": "balance",
            "offset": 16,
            "slot": "0",
            "type": "t_uint128"
          }
        ],
        "numberOfBytes": "32"
      },
      "t_uint128": {
        "encoding": "inplace",
        "label": "uint128",
        "numberOfBytes": "16"
      },
      "t_uint256": {
        "encoding": "inplace",
        "label": "uint256",
        "numberOfBytes": "32"
      },
      "t_uint64": {
        "encoding": "inplace",
        "label": "uint64",
        "numberOfBytes": "8"
      }
    }
  }
}