{
  "address": "0xFA67878cF12101948B865F01cf8f83c8EB3446B7",
  "abi": [
    {
      "inputs": [
        {
          "internalType": "contract IBentoBoxV1",
          "name": "bentoBox_",
          "type": "address"
        },
        {
          "internalType": "contract IERC20",
          "name": "magicInternetMoney_",
          "type": "address"
        }
      ],
      "stateMutability": "nonpayable",
      "type": "constructor"
    },
    {
      "anonymous": false,
      "inputs": [
        {
          "indexed": false,
          "internalType": "uint128",
          "name": "accruedAmount",
          "type": "uint128"
        }
      ],
      "name": "LogAccrue",
      "type": "event"
    },
    {
      "anonymous": false,
      "inputs": [
        {
          "indexed": true,
          "internalType": "address",
          "name": "from",
          "type": "address"
        },
        {
          "indexed": true,
          "internalType": "address",
          "name": "to",
          "type": "address"
        },
        {
          "indexed": false,
          "internalType": "uint256",
          "name": "share",
          "type": "uint256"
        }
      ],
      "name": "LogAddCollateral",
      "type": "event"
    },
    {
      "anonymous": false,
      "inputs": [
        {
          "indexed": true,
          "internalType": "address",
          "name": "from",
          "type": "address"
        },
        {
          "indexed": true,
          "internalType": "address",
          "name": "to",
          "type": "address"
        },
        {
          "indexed": false,
          "internalType": "uint256",
          "name": "amount",
          "type": "uint256"
        },
        {
          "indexed": false,
          "internalType": "uint256",
          "name": "part",
          "type": "uint256"
        }
      ],
      "name": "LogBorrow",
      "type": "event"
    },
    {
      "anonymous": false,
      "inputs": [
        {
          "indexed": false,
          "internalType": "uint256",
          "name": "rate",
          "type": "uint256"
        }
      ],
      "name": "LogExchangeRate",
      "type": "event"
    },
    {
      "anonymous": false,
      "inputs": [
        {
          "indexed": true,
          "internalType": "address",
          "name": "newFeeTo",
          "type": "address"
        }
      ],
      "name": "LogFeeTo",
      "type": "event"
    },
    {
      "anonymous": false,
      "inputs": [
        {
          "indexed": true,
          "internalType": "address",
          "name": "from",
          "type": "address"
        },
        {
          "indexed": true,
          "internalType": "address",
          "name": "to",
          "type": "address"
        },
        {
          "indexed": false,
          "internalType": "uint256",
          "name": "share",
          "type": "uint256"
        }
      ],
      "name": "LogRemoveCollateral",
      "type": "event"
    },
    {
      "anonymous": false,
      "inputs": [
        {
          "indexed": true,
          "internalType": "address",
          "name": "from",
          "type": "address"
        },
        {
          "indexed": true,
          "internalType": "address",
          "name": "to",
          "type": "address"
        },
        {
          "indexed": false,
          "internalType": "uint256",
          "name": "amount",
          "type": "uint256"
        },
        {
          "indexed": false,
          "internalType": "uint256",
          "name": "part",
          "type": "uint256"
        }
      ],
      "name": "LogRepay",
      "type": "event"
    },
    {
      "anonymous": false,
      "inputs": [
        {
          "indexed": true,
          "internalType": "address",
          "name": "feeTo",
          "type": "address"
        },
        {
          "indexed": false,
          "internalType": "uint256",
          "name": "feesEarnedFraction",
          "type": "uint256"
        }
      ],
      "name": "LogWithdrawFees",
      "type": "event"
    },
    {
      "anonymous": false,
      "inputs": [
        {
          "indexed": true,
          "internalType": "address",
          "name": "previousOwner",
          "type": "address"
        },
        {
          "indexed": true,
          "internalType": "address",
          "name": "newOwner",
          "type": "address"
        }
      ],
      "name": "OwnershipTransferred",
      "type": "event"
    },
    {
      "inputs": [],
      "name": "BORROW_OPENING_FEE",
      "outputs": [
        {
          "internalType": "uint256",
          "name": "",
          "type": "uint256"
        }
      ],
      "stateMutability": "view",
      "type": "function"
    },
    {
      "inputs": [],
      "name": "COLLATERIZATION_RATE",
      "outputs": [
        {
          "internalType": "uint256",
          "name": "",
          "type": "uint256"
        }
      ],
      "stateMutability": "view",
      "type": "function"
    },
    {
      "inputs": [],
      "name": "LIQUIDATION_MULTIPLIER",
      "outputs": [
        {
          "internalType": "uint256",
          "name": "",
          "type": "uint256"
        }
      ],
      "stateMutability": "view",
      "type": "function"
    },
    {
      "inputs": [],
      "name": "accrue",
      "outputs": [],
      "stateMutability": "nonpayable",
      "type": "function"
    },
    {
      "inputs": [],
      "name": "accrueInfo",
      "outputs": [
        {
          "internalType": "uint64",
          "name": "lastAccrued",
          "type": "uint64"
        },
        {
          "internalType": "uint128",
          "name": "feesEarned",
          "type": "uint128"
        },
        {
          "internalType": "uint64",
          "name": "INTEREST_PER_SECOND",
          "type": "uint64"
        }
      ],
      "stateMutability": "view",
      "type": "function"
    },
    {
      "inputs": [
        {
          "internalType": "address",
          "name": "to",
          "type": "address"
        },
        {
          "internalType": "bool",
          "name": "skim",
          "type": "bool"
        },
        {
          "internalType": "uint256",
          "name": "share",
          "type": "uint256"
        }
      ],
      "name": "addCollateral",
      "outputs": [],
      "stateMutability": "nonpayable",
      "type": "function"
    },
    {
      "inputs": [],
      "name": "bentoBox",
      "outputs": [
        {
          "internalType": "contract IBentoBoxV1",
          "name": "",
          "type": "address"
        }
      ],
      "stateMutability": "view",
      "type": "function"
    },
    {
      "inputs": [
        {
          "internalType": "address",
          "name": "to",
          "type": "address"
        },
        {
          "internalType": "uint256",
          "name": "amount",
          "type": "uint256"
        }
      ],
      "name": "borrow",
      "outputs": [
        {
          "internalType": "uint256",
          "name": "part",
          "type": "uint256"
        },
        {
          "internalType": "uint256",
          "name": "share",
          "type": "uint256"
        }
      ],
      "stateMutability": "nonpayable",
      "type": "function"
    },
    {
      "inputs": [],
      "name": "claimOwnership",
      "outputs": [],
      "stateMutability": "nonpayable",
      "type": "function"
    },
    {
      "inputs": [],
      "name": "collateral",
      "outputs": [
        {
          "internalType": "contract IERC20",
          "name": "",
          "type": "address"
        }
      ],
      "stateMutability": "view",
      "type": "function"
    },
    {
      "inputs": [
        {
          "internalType": "uint8[]",
          "name": "actions",
          "type": "uint8[]"
        },
        {
          "internalType": "uint256[]",
          "name": "values",
          "type": "uint256[]"
        },
        {
          "internalType": "bytes[]",
          "name": "datas",
          "type": "bytes[]"
        }
      ],
      "name": "cook",
      "outputs": [
        {
          "internalType": "uint256",
          "name": "value1",
          "type": "uint256"
        },
        {
          "internalType": "uint256",
          "name": "value2",
          "type": "uint256"
        }
      ],
      "stateMutability": "payable",
      "type": "function"
    },
    {
      "inputs": [],
      "name": "exchangeRate",
      "outputs": [
        {
          "internalType": "uint256",
          "name": "",
          "type": "uint256"
        }
      ],
      "stateMutability": "view",
      "type": "function"
    },
    {
      "inputs": [],
      "name": "feeTo",
      "outputs": [
        {
          "internalType": "address",
          "name": "",
          "type": "address"
        }
      ],
      "stateMutability": "view",
      "type": "function"
    },
    {
      "inputs": [
        {
          "internalType": "bytes",
          "name": "data",
          "type": "bytes"
        }
      ],
      "name": "init",
      "outputs": [],
      "stateMutability": "payable",
      "type": "function"
    },
    {
      "inputs": [
        {
          "internalType": "address[]",
          "name": "users",
          "type": "address[]"
        },
        {
          "internalType": "uint256[]",
          "name": "maxBorrowParts",
          "type": "uint256[]"
        },
        {
          "internalType": "address",
          "name": "to",
          "type": "address"
        },
        {
          "internalType": "contract ISwapper",
          "name": "swapper",
          "type": "address"
        }
      ],
      "name": "liquidate",
      "outputs": [],
      "stateMutability": "nonpayable",
      "type": "function"
    },
    {
      "inputs": [],
      "name": "magicInternetMoney",
      "outputs": [
        {
          "internalType": "contract IERC20",
          "name": "",
          "type": "address"
        }
      ],
      "stateMutability": "view",
      "type": "function"
    },
    {
      "inputs": [],
      "name": "masterContract",
      "outputs": [
        {
          "internalType": "contract CauldronV2",
          "name": "",
          "type": "address"
        }
      ],
      "stateMutability": "view",
      "type": "function"
    },
    {
      "inputs": [],
      "name": "oracle",
      "outputs": [
        {
          "internalType": "contract IOracle",
          "name": "",
          "type": "address"
        }
      ],
      "stateMutability": "view",
      "type": "function"
    },
    {
      "inputs": [],
      "name": "oracleData",
      "outputs": [
        {
          "internalType": "bytes",
          "name": "",
          "type": "bytes"
        }
      ],
      "stateMutability": "view",
      "type": "function"
    },
    {
      "inputs": [],
      "name": "owner",
      "outputs": [
        {
          "internalType": "address",
          "name": "",
          "type": "address"
        }
      ],
      "stateMutability": "view",
      "type": "function"
    },
    {
      "inputs": [],
      "name": "pendingOwner",
      "outputs": [
        {
          "internalType": "address",
          "name": "",
          "type": "address"
        }
      ],
      "stateMutability": "view",
      "type": "function"
    },
    {
      "inputs": [
        {
          "internalType": "uint256",
          "name": "amount",
          "type": "uint256"
        }
      ],
      "name": "reduceSupply",
      "outputs": [],
      "stateMutability": "nonpayable",
      "type": "function"
    },
    {
      "inputs": [
        {
          "internalType": "address",
          "name": "to",
          "type": "address"
        },
        {
          "internalType": "uint256",
          "name": "share",
          "type": "uint256"
        }
      ],
      "name": "removeCollateral",
      "outputs": [],
      "stateMutability": "nonpayable",
      "type": "function"
    },
    {
      "inputs": [
        {
          "internalType": "address",
          "name": "to",
          "type": "address"
        },
        {
          "internalType": "bool",
          "name": "skim",
          "type": "bool"
        },
        {
          "internalType": "uint256",
          "name": "part",
          "type": "uint256"
        }
      ],
      "name": "repay",
      "outputs": [
        {
          "internalType": "uint256",
          "name": "amount",
          "type": "uint256"
        }
      ],
      "stateMutability": "nonpayable",
      "type": "function"
    },
    {
      "inputs": [
        {
          "internalType": "address",
          "name": "newFeeTo",
          "type": "address"
        }
      ],
      "name": "setFeeTo",
      "outputs": [],
      "stateMutability": "nonpayable",
      "type": "function"
    },
    {
      "inputs": [],
      "name": "test",
      "outputs": [
        {
          "internalType": "string",
          "name": "",
          "type": "string"
        }
      ],
      "stateMutability": "pure",
      "type": "function"
    },
    {
      "inputs": [],
      "name": "totalBorrow",
      "outputs": [
        {
          "internalType": "uint128",
          "name": "elastic",
          "type": "uint128"
        },
        {
          "internalType": "uint128",
          "name": "base",
          "type": "uint128"
        }
      ],
      "stateMutability": "view",
      "type": "function"
    },
    {
      "inputs": [],
      "name": "totalCollateralShare",
      "outputs": [
        {
          "internalType": "uint256",
          "name": "",
          "type": "uint256"
        }
      ],
      "stateMutability": "view",
      "type": "function"
    },
    {
      "inputs": [
        {
          "internalType": "address",
          "name": "newOwner",
          "type": "address"
        },
        {
          "internalType": "bool",
          "name": "direct",
          "type": "bool"
        },
        {
          "internalType": "bool",
          "name": "renounce",
          "type": "bool"
        }
      ],
      "name": "transferOwnership",
      "outputs": [],
      "stateMutability": "nonpayable",
      "type": "function"
    },
    {
      "inputs": [],
      "name": "updateExchangeRate",
      "outputs": [
        {
          "internalType": "bool",
          "name": "updated",
          "type": "bool"
        },
        {
          "internalType": "uint256",
          "name": "rate",
          "type": "uint256"
        }
      ],
      "stateMutability": "nonpayable",
      "type": "function"
    },
    {
      "inputs": [
        {
          "internalType": "address",
          "name": "",
          "type": "address"
        }
      ],
      "name": "userBorrowPart",
      "outputs": [
        {
          "internalType": "uint256",
          "name": "",
          "type": "uint256"
        }
      ],
      "stateMutability": "view",
      "type": "function"
    },
    {
      "inputs": [
        {
          "internalType": "address",
          "name": "",
          "type": "address"
        }
      ],
      "name": "userCollateralShare",
      "outputs": [
        {
          "internalType": "uint256",
          "name": "",
          "type": "uint256"
        }
      ],
      "stateMutability": "view",
      "type": "function"
    },
    {
      "inputs": [],
      "name": "withdrawFees",
      "outputs": [],
      "stateMutability": "nonpayable",
      "type": "function"
    }
  ],
  "transactionHash": "0x9b19d2b3b4a69501d2bd6161367bc86ebfc4144d6633887885c7a742240bc22d",
  "args": [
    "0x1A32B83332A9b967c48853A7aC0906392Dff6be3",
    "0xded1340A337bDd69aecD7e696D610E9D2F49767f"
  ],
  "solcInputHash": "117c5f3341c10b0f2e242c1c67d1f67c",
  "bytecode": "0x60e06040523480156200001157600080fd5b50604051620045df380380620045df833981016040819052620000349162000099565b600080546001600160a01b0319163390811782556040519091907f8be0079c531659141344cd1fd0a4f28419497f9722a3daafe3b4186f6b6457e0908290a36001600160601b0319606092831b811660805290821b1660c05230901b60a052620000f0565b60008060408385031215620000ac578182fd5b8251620000b981620000d7565b6020840151909250620000cc81620000d7565b809150509250929050565b6001600160a01b0381168114620000ed57600080fd5b50565b60805160601c60a05160601c60c05160601c6143f6620001e960003980610889528061094c52806112de528061164152806116dc5280611d175280611e5a5280611f205280611f91528061241d52806124cd528061273f528061280152508061079c528061153e5280611fed525080610854528061091f5280610ea85280611070528061114852806112af5280611477528061161452806117db52806118f75280611cea5280611db15280611ef352806123ee528061249e52806124f95280612583528061270a52806127d452806129585280612b005280612bb65280612c925280612e175280613057528061313452506143f66000f3fe6080604052600436106101ee5760003560e01c80637dc0d1d01161010d578063aba024f4116100a0578063d8dfeb451161006f578063d8dfeb4514610509578063e30c39781461051e578063f46901ed14610533578063f8a8fd6d14610553578063f8ba4cff14610568576101ee565b8063aba024f4146104a6578063b27c0e74146104bb578063c7ee2a7b146104df578063cd446e22146104f4576101ee565b8063876467f8116100dc578063876467f81461043c5780638da5cb5b1461045c578063912860c5146104715780639b352ae114610491576101ee565b80637dc0d1d0146103c457806380623444146103d95780638285ef40146103f9578063860ffea11461041c576101ee565b806348e4163e11610185578063656f3d6411610154578063656f3d64146103655780636b2ace87146103785780636ec097fb1461038d57806374645ff3146103a2576101ee565b806348e4163e146102ef5780634b8a35291461030f5780634ddf47d41461033d5780634e71e0c814610350576101ee565b80631c9e379b116101c15780631c9e379b146102905780633ba0b9a9146102b0578063473e3ce7146102c5578063476343ee146102da576101ee565b8063017e7e58146101f357806302ce728f1461021e578063078dfbe71461024157806315294c4014610263575b600080fd5b3480156101ff57600080fd5b5061020861057d565b6040516102159190613cd0565b60405180910390f35b34801561022a57600080fd5b5061023361058c565b604051610215929190613d1d565b34801561024d57600080fd5b5061026161025c366004613687565b610666565b005b34801561026f57600080fd5b5061028361027e3660046136d1565b610755565b6040516102159190614264565b34801561029c57600080fd5b506102836102ab366004613525565b610772565b3480156102bc57600080fd5b50610283610784565b3480156102d157600080fd5b5061028361078a565b3480156102e657600080fd5b50610261610790565b3480156102fb57600080fd5b5061028361030a366004613525565b610a07565b34801561031b57600080fd5b5061032f61032a366004613711565b610a19565b60405161021592919061426d565b61026161034b3660046138c3565b610a64565b34801561035c57600080fd5b50610261610b4f565b61032f6103733660046137cd565b610bdc565b34801561038457600080fd5b50610208611475565b34801561039957600080fd5b50610283611499565b3480156103ae57600080fd5b506103b761149f565b6040516102159190613d2d565b3480156103d057600080fd5b5061020861152d565b3480156103e557600080fd5b506102616103f4366004613b3b565b61153c565b34801561040557600080fd5b5061040e611746565b60405161021592919061424a565b34801561042857600080fd5b506102616104373660046136d1565b611760565b34801561044857600080fd5b50610261610457366004613711565b611841565b34801561046857600080fd5b5061020861187b565b34801561047d57600080fd5b5061026161048c36600461373c565b61188a565b34801561049d57600080fd5b50610208611f8f565b3480156104b257600080fd5b50610283611fb3565b3480156104c757600080fd5b506104d0611fb9565b6040516102159392919061427b565b3480156104eb57600080fd5b50610283611fe5565b34801561050057600080fd5b50610208611feb565b34801561051557600080fd5b5061020861200f565b34801561052a57600080fd5b5061020861201e565b34801561053f57600080fd5b5061026161054e366004613525565b61202d565b34801561055f57600080fd5b506103b76120a1565b34801561057457600080fd5b506102616120c5565b6002546001600160a01b031681565b6004805460405163d6d7d52560e01b815260009283926001600160a01b03169163d6d7d525916105bf9160059101613d40565b6040805180830381600087803b1580156105d857600080fd5b505af11580156105ec573d6000803e3d6000fd5b505050506040513d601f19601f820116820180604052508101906106109190613862565b9092509050811561065d57600a8190556040517f9f9192b5edb17356c524e08d9e025c8e2f6307e6ea52fb7968faa3081f51c3c890610650908390614264565b60405180910390a1610662565b50600a545b9091565b6000546001600160a01b031633146106995760405162461bcd60e51b81526004016106909061409e565b60405180910390fd5b8115610734576001600160a01b0383161515806106b35750805b6106cf5760405162461bcd60e51b815260040161069090613fca565b600080546040516001600160a01b03808716939216917f8be0079c531659141344cd1fd0a4f28419497f9722a3daafe3b4186f6b6457e091a3600080546001600160a01b0385166001600160a01b031991821617909155600180549091169055610750565b600180546001600160a01b0319166001600160a01b0385161790555b505050565b600061075f6120c5565b61076a84848461232d565b949350505050565b60086020526000908152604090205481565b600a5481565b60065481565b6107986120c5565b60007f00000000000000000000000000000000000000000000000000000000000000006001600160a01b031663017e7e586040518163ffffffff1660e01b815260040160206040518083038186803b1580156107f357600080fd5b505afa158015610807573d6000803e3d6000fd5b505050506040513d601f19601f8201168201806040525081019061082b9190613541565b600b54604051636d289ce560e11b8152919250600160401b90046001600160801b0316906000907f00000000000000000000000000000000000000000000000000000000000000006001600160a01b03169063da5139ca906108b5907f00000000000000000000000000000000000000000000000000000000000000009086908690600401613edb565b60206040518083038186803b1580156108cd57600080fd5b505afa1580156108e1573d6000803e3d6000fd5b505050506040513d601f19601f820116820180604052508101906109059190613be8565b604051633c6340f360e21b81529091506001600160a01b037f0000000000000000000000000000000000000000000000000000000000000000169063f18d03cc9061097a907f000000000000000000000000000000000000000000000000000000000000000090309088908790600401613de4565b600060405180830381600087803b15801561099457600080fd5b505af11580156109a8573d6000803e3d6000fd5b5050600b8054600160401b600160c01b031916905550506040516001600160a01b038416907fbe641c3ffc44b2d6c184f023fa4ed7bda4b6ffa71e03b3c98ae0c776da1f17e7906109fa908590614264565b60405180910390a2505050565b60096020526000908152604090205481565b600080610a246120c5565b610a2e84846125ed565b600a549193509150610a419033906128b7565b610a5d5760405162461bcd60e51b815260040161069090613f2d565b9250929050565b6003546001600160a01b031615610a8d5760405162461bcd60e51b815260040161069090614136565b610a9981830183613a77565b600e819055600c829055600d839055600b80546001600160c01b0316600160c01b6001600160401b0387160217905584516003906000906004908290610ae69060059060208c0190613361565b50815461010091820a6001600160a01b03818102199092169b8216029a909a17909155825491900a808902199091169888160297909717909655505060035490921615159250610b4b9150505760405162461bcd60e51b8152600401610690906141a4565b5050565b6001546001600160a01b0316338114610b7a5760405162461bcd60e51b8152600401610690906140d3565b600080546040516001600160a01b03808516939216917f8be0079c531659141344cd1fd0a4f28419497f9722a3daafe3b4186f6b6457e091a3600080546001600160a01b039092166001600160a01b0319928316179055600180549091169055565b600080610be76133db565b60005b888110156114395760008a8a83818110610c0057fe5b9050602002016020810190610c159190613c23565b90508260200151158015610c2c5750600a8160ff16105b15610c4157610c396120c5565b600160208401525b60ff8116600a1415610c9b576000806000898986818110610c5e57fe5b9050602002810190610c7091906142a7565b810190610c7d9190613b82565b925092509250610c938282610437868c8c612a3f565b505050611430565b60ff811660021415610cfb576000806000898986818110610cb857fe5b9050602002810190610cca91906142a7565b810190610cd79190613b82565b925092509250610cf28282610ced868c8c612a3f565b61232d565b50505050611430565b60ff811660041415610d5857600080888885818110610d1657fe5b9050602002810190610d2891906142a7565b810190610d359190613b53565b91509150610d4d81610d48848a8a612a3f565b612a67565b505060018352611430565b60ff811660051415610dbb57600080888885818110610d7357fe5b9050602002810190610d8591906142a7565b810190610d929190613b53565b91509150610daa81610da5848a8a612a3f565b6125ed565b600187529097509550611430915050565b60ff8116600b1415610e5a576000806000898986818110610dd857fe5b9050602002810190610dea91906142a7565b810190610df7919061388f565b925092509250600080610e0861058c565b91509150841580610e165750815b8015610e2157508381115b8015610e345750821580610e3457508281115b610e505760405162461bcd60e51b815260040161069090614207565b5050505050611430565b60ff811660181415610f39576000806000806000808c8c89818110610e7b57fe5b9050602002810190610e8d91906142a7565b810190610e9a919061355d565b9550955095509550955095507f00000000000000000000000000000000000000000000000000000000000000006001600160a01b031663c0a47c938787878787876040518763ffffffff1660e01b8152600401610efc96959493929190613ce4565b600060405180830381600087803b158015610f1657600080fd5b505af1158015610f2a573d6000803e3d6000fd5b50505050505050505050611430565b60ff811660141415610fc157610fb7878784818110610f5457fe5b9050602002810190610f6691906142a7565b8080601f0160208091040260200160405190810160405280939291908181526020018383808284376000920191909152508d92508c9150869050818110610fa957fe5b905060200201358787612b75565b9095509350611430565b60ff81166015141561102c57610fb7878784818110610fdc57fe5b9050602002810190610fee91906142a7565b8080601f016020809104026020016040519081016040528093929190818152602001838380828437600092019190915250899250889150612c6b9050565b60ff81166016141561110457600080600089898681811061104957fe5b905060200281019061105b91906142a7565b810190611068919061392f565b9250925092507f00000000000000000000000000000000000000000000000000000000000000006001600160a01b031663f18d03cc8433856110ab868e8e612a3f565b6040518563ffffffff1660e01b81526004016110ca9493929190613de4565b600060405180830381600087803b1580156110e457600080fd5b505af11580156110f8573d6000803e3d6000fd5b50505050505050611430565b60ff81166017141561119857600060608089898681811061112157fe5b905060200281019061113391906142a7565b81019061114091906139a5565b9250925092507f00000000000000000000000000000000000000000000000000000000000000006001600160a01b0316630fca8843843385856040518563ffffffff1660e01b81526004016110ca9493929190613e42565b60ff8116601e1415611272576060600061121a8b8b868181106111b757fe5b905060200201358a8a878181106111ca57fe5b90506020028101906111dc91906142a7565b8080601f0160208091040260200160405190810160405280939291908181526020018383808284376000920191909152508c92508b9150612d599050565b915091508060ff1660011415611245578180602001905181019061123e9190613be8565b965061126b565b8060ff166002141561126b57818060200190518101906112659190613c00565b90975095505b5050611430565b60ff8116600614156113b357600087878481811061128c57fe5b905060200281019061129e91906142a7565b8101906112ab9190613b3b565b90507f00000000000000000000000000000000000000000000000000000000000000006001600160a01b031663da5139ca7f000000000000000000000000000000000000000000000000000000000000000061133b61130b858b8b612a3f565b604080518082019091526007546001600160801b038082168352600160801b909104166020820152906001612f0f565b60016040518463ffffffff1660e01b815260040161135b93929190613edb565b60206040518083038186803b15801561137357600080fd5b505afa158015611387573d6000803e3d6000fd5b505050506040513d601f19601f820116820180604052508101906113ab9190613be8565b955050611430565b60ff8116600714156114305760008787848181106113cd57fe5b90506020028101906113df91906142a7565b8101906113ec9190613b3b565b905061142c6113fc828888612a3f565b604080518082019091526007546001600160801b038082168352600160801b909104166020820152906000612faf565b9550505b50600101610bea565b508051156114695761144d33600a546128b7565b6114695760405162461bcd60e51b815260040161069090613f2d565b50965096945050505050565b7f000000000000000000000000000000000000000000000000000000000000000081565b600d5481565b6005805460408051602060026001851615610100026000190190941693909304601f810184900484028201840190925281815292918301828280156115255780601f106114fa57610100808354040283529160200191611525565b820191906000526020600020905b81548152906001019060200180831161150857829003601f168201915b505050505081565b6004546001600160a01b031681565b7f00000000000000000000000000000000000000000000000000000000000000006001600160a01b0316638da5cb5b6040518163ffffffff1660e01b815260040160206040518083038186803b15801561159557600080fd5b505afa1580156115a9573d6000803e3d6000fd5b505050506040513d601f19601f820116820180604052508101906115cd9190613541565b6001600160a01b0316336001600160a01b0316146115fd5760405162461bcd60e51b815260040161069090613f64565b60405163097da6d360e41b81526001600160a01b037f000000000000000000000000000000000000000000000000000000000000000016906397da6d3090611672907f000000000000000000000000000000000000000000000000000000000000000090309081908790600090600401613e0e565b6040805180830381600087803b15801561168b57600080fd5b505af115801561169f573d6000803e3d6000fd5b505050506040513d601f19601f820116820180604052508101906116c39190613c00565b5050604051630852cd8d60e31b81526001600160a01b037f000000000000000000000000000000000000000000000000000000000000000016906342966c6890611711908490600401614264565b600060405180830381600087803b15801561172b57600080fd5b505af115801561173f573d6000803e3d6000fd5b5050505050565b6007546001600160801b0380821691600160801b90041682565b6001600160a01b0383166000908152600860205260409020546117839082613028565b6001600160a01b0384166000908152600860205260409020556006546117a98183613028565b6006556003546117c4906001600160a01b031683838661304b565b836001600160a01b0316836117d957336117fb565b7f00000000000000000000000000000000000000000000000000000000000000005b6001600160a01b03167f9ed03113de523cebfe5e49d5f8e12894b1c0d42ce805990461726444c90eab87846040516118339190614264565b60405180910390a350505050565b6118496120c5565b6118538282612a67565b61185f33600a546128b7565b610b4b5760405162461bcd60e51b815260040161069090613f2d565b6000546001600160a01b031681565b600061189461058c565b91505061189f6120c5565b60008060006118ac6133db565b50604080518082019091526007546001600160801b038082168352600160801b9091041660208201526118dd6133db565b600354604051634ffe34db60e01b81526001600160a01b037f0000000000000000000000000000000000000000000000000000000000000000811692634ffe34db92611930929190911690600401613cd0565b604080518083038186803b15801561194757600080fd5b505afa15801561195b573d6000803e3d6000fd5b505050506040513d601f19601f8201168201806040525081019061197f9190613ba8565b905060005b8b811015611b855760008d8d8381811061199a57fe5b90506020020160208101906119af9190613525565b90506119bb81896128b7565b611b7c576001600160a01b038116600090815260096020526040812054808e8e868181106119e557fe5b9050602002013511611a09578d8d858181106119fd57fe5b90506020020135611a0b565b805b9150611a1781836131a8565b6001600160a01b0384166000908152600960205260408120919091559050611a40868383612f0f565b90506000611a86670de0b6b3a7640000620186a002611a748d611a6e600d54876131cb90919063ffffffff16565b906131cb565b81611a7b57fe5b889190046000612faf565b6001600160a01b038516600090815260086020526040902054909150611aac90826131a8565b6001600160a01b0380861660008181526008602052604090819020939093559151908f1691907f8ad4d3ff00da092c7ad9a573ea4f5f6a3dffc6712dc06d3f78f49b862297c40290611aff908590614264565b60405180910390a3836001600160a01b0316336001600160a01b03167fc8e512d8f188ca059984b5853d2bf653da902696b8512785b182b2c813789a6e8486604051611b4c92919061426d565b60405180910390a3611b5e8a82613028565b9950611b6a8983613028565b9850611b768884613028565b97505050505b50600101611984565b5083611ba35760405162461bcd60e51b815260040161069090614030565b611bc0611baf85613202565b83516001600160801b03169061322f565b6001600160801b03168252611beb611bd784613202565b60208401516001600160801b03169061322f565b6001600160801b03908116602084018190528351600780546001600160801b03191691841691909117909216600160801b909102179055600654611c2f90866131a8565b60068190555060006064611c69600a611a6e88620186a0611c5b600d548c6131cb90919063ffffffff16565b81611c6257fe5b04906131a8565b81611c7057fe5b049050611c7d8582613028565b9450611ca4611c8b82613202565b600b54600160401b90046001600160801b03169061325e565b600b80546001600160801b0392909216600160401b02600160401b600160c01b031990921691909117905550604051636d289ce560e11b81526000906001600160a01b037f0000000000000000000000000000000000000000000000000000000000000000169063da5139ca90611d44907f0000000000000000000000000000000000000000000000000000000000000000908990600190600401613edb565b60206040518083038186803b158015611d5c57600080fd5b505afa158015611d70573d6000803e3d6000fd5b505050506040513d601f19601f82011682018060405250810190611d949190613be8565b600354604051633c6340f360e21b81529192506001600160a01b037f000000000000000000000000000000000000000000000000000000000000000081169263f18d03cc92611ded92169030908e908c90600401613de4565b600060405180830381600087803b158015611e0757600080fd5b505af1158015611e1b573d6000803e3d6000fd5b505050506001600160a01b03881615611edc576003546040516371a1ff0960e11b81526001600160a01b038a81169263e343fe1292611e8892909116907f000000000000000000000000000000000000000000000000000000000000000090339087908d90600401613e0e565b6040805180830381600087803b158015611ea157600080fd5b505af1158015611eb5573d6000803e3d6000fd5b505050506040513d601f19601f82011682018060405250810190611ed99190613c00565b50505b604051633c6340f360e21b81526001600160a01b037f0000000000000000000000000000000000000000000000000000000000000000169063f18d03cc90611f4e907f000000000000000000000000000000000000000000000000000000000000000090339030908790600401613de4565b600060405180830381600087803b158015611f6857600080fd5b505af1158015611f7c573d6000803e3d6000fd5b5050505050505050505050505050505050565b7f000000000000000000000000000000000000000000000000000000000000000081565b600e5481565b600b546001600160401b03808216916001600160801b03600160401b82041691600160c01b9091041683565b600c5481565b7f000000000000000000000000000000000000000000000000000000000000000081565b6003546001600160a01b031681565b6001546001600160a01b031681565b6000546001600160a01b031633146120575760405162461bcd60e51b81526004016106909061409e565b600280546001600160a01b0319166001600160a01b0383169081179091556040517fcf1d3f17e521c635e0d20b8acba94ba170afc041d0546d46dafa09d3c9c19eb390600090a250565b60408051808201909152600a81526921b0bab6323937b72b1960b11b602082015290565b6120cd6133f2565b5060408051606081018252600b546001600160401b038082168084526001600160801b03600160401b8404166020850152600160c01b90920416928201929092529042038061211d57505061232b565b6001600160401b03421682526121316133db565b50604080518082019091526007546001600160801b038082168352600160801b90910416602082018190526121cf5750508051600b805460208401516040909401516001600160401b03908116600160c01b026001600160c01b036001600160801b03909616600160401b02600160401b600160c01b03199290951667ffffffffffffffff199093169290921716929092179290921617905561232b565b600061221b670de0b6b3a764000061220e85611a6e88604001516001600160401b031687600001516001600160801b03166131cb90919063ffffffff16565b8161221557fe5b04613202565b8251909150612233906001600160801b03168261325e565b6001600160801b039081168352602085015161225091168261325e565b6001600160801b039081166020808701829052845160078054928701518516600160801b029185166001600160801b031990931692909217909316929092179091558451600b80546040808901516001600160401b03908116600160c01b026001600160c01b03600160401b909702600160401b600160c01b03199290961667ffffffffffffffff199094169390931716939093179390931692909217909155517fee527de5e142bcc7fe0eddc4b9a04816d73f6307dd74f9204585910d60a8c0839061231e908390614236565b60405180910390a1505050505b565b604080518082019091526007546001600160801b038082168352600160801b9091041660208201526000906123649083600161328d565b8151600780546020948501516001600160801b03908116600160801b029381166001600160801b031990921691909117169190911790556001600160a01b038616600090815260099092526040909120549091506123c290836131a8565b6001600160a01b03808616600090815260096020526040808220939093559151636d289ce560e11b81527f00000000000000000000000000000000000000000000000000000000000000009091169063da5139ca9061244a907f0000000000000000000000000000000000000000000000000000000000000000908690600190600401613edb565b60206040518083038186803b15801561246257600080fd5b505afa158015612476573d6000803e3d6000fd5b505050506040513d601f19601f8201168201806040525081019061249a9190613be8565b90507f00000000000000000000000000000000000000000000000000000000000000006001600160a01b031663f18d03cc7f0000000000000000000000000000000000000000000000000000000000000000866124f75733612519565b7f00000000000000000000000000000000000000000000000000000000000000005b30856040518563ffffffff1660e01b815260040161253a9493929190613de4565b600060405180830381600087803b15801561255457600080fd5b505af1158015612568573d6000803e3d6000fd5b50505050846001600160a01b03168461258157336125a3565b7f00000000000000000000000000000000000000000000000000000000000000005b6001600160a01b03167fc8e512d8f188ca059984b5853d2bf653da902696b8512785b182b2c813789a6e84866040516125dd92919061426d565b60405180910390a3509392505050565b6000806000620186a061260b600e54866131cb90919063ffffffff16565b8161261257fe5b0490506126526126228583613028565b604080518082019091526007546001600160801b038082168352600160801b909104166020820152906001613302565b8151600780546020909401516001600160801b03908116600160801b029281166001600160801b0319909516949094178416919091179055600b549094506126a391600160401b909104168261325e565b600b80546001600160801b0392909216600160401b02600160401b600160c01b0319909216919091179055336000908152600960205260409020546126e89084613028565b33600090815260096020526040808220929092559051636d289ce560e11b81527f00000000000000000000000000000000000000000000000000000000000000006001600160a01b03169163da5139ca9161276a917f000000000000000000000000000000000000000000000000000000000000000091899190600401613edb565b60206040518083038186803b15801561278257600080fd5b505afa158015612796573d6000803e3d6000fd5b505050506040513d601f19601f820116820180604052508101906127ba9190613be8565b604051633c6340f360e21b81529092506001600160a01b037f0000000000000000000000000000000000000000000000000000000000000000169063f18d03cc9061282f907f00000000000000000000000000000000000000000000000000000000000000009030908a908890600401613de4565b600060405180830381600087803b15801561284957600080fd5b505af115801561285d573d6000803e3d6000fd5b5050506001600160a01b0386169050337fb92cb6bca8e3270b9170930f03b17571e55791acdb1a0e9f339eec88bdb35e246128988785613028565b866040516128a792919061426d565b60405180910390a3509250929050565b6001600160a01b038216600090815260096020526040812054806128df576001915050612a39565b6001600160a01b0384166000908152600860205260409020548061290857600092505050612a39565b6129106133db565b50604080518082019091526007546001600160801b03808216808452600160801b90920416602083018190529061294e908790611a6e9087906131cb565b8161295557fe5b047f00000000000000000000000000000000000000000000000000000000000000006001600160a01b03166356623118600360009054906101000a90046001600160a01b03166129c1600c54611a6e620186a0670de0b6b3a7640000816129b857fe5b8a9190046131cb565b60006040518463ffffffff1660e01b81526004016129e193929190613edb565b60206040518083038186803b1580156129f957600080fd5b505afa158015612a0d573d6000803e3d6000fd5b505050506040513d601f19601f82011682018060405250810190612a319190613be8565b101593505050505b92915050565b600080841215612a5f576000198414612a585781612a5a565b825b61076a565b509192915050565b33600090815260086020526040902054612a8190826131a8565b33600090815260086020526040902055600654612a9e90826131a8565b6006556040516001600160a01b0383169033907f8ad4d3ff00da092c7ad9a573ea4f5f6a3dffc6712dc06d3f78f49b862297c40290612ade908590614264565b60405180910390a3600354604051633c6340f360e21b81526001600160a01b037f000000000000000000000000000000000000000000000000000000000000000081169263f18d03cc92612b3f929190911690309087908790600401613de4565b600060405180830381600087803b158015612b5957600080fd5b505af1158015612b6d573d6000803e3d6000fd5b505050505050565b60008060008060008089806020019051810190612b92919061395e565b9350935093509350612ba5828989612a3f565b9150612bb2818989612a3f565b90507f00000000000000000000000000000000000000000000000000000000000000006001600160a01b03166302b9446c8a86338787876040518763ffffffff1660e01b8152600401612c09959493929190613e0e565b60408051808303818588803b158015612c2157600080fd5b505af1158015612c35573d6000803e3d6000fd5b50505050506040513d601f19601f82011682018060405250810190612c5a9190613c00565b955095505050505094509492505050565b60008060008060008088806020019051810190612c88919061395e565b93509350935093507f00000000000000000000000000000000000000000000000000000000000000006001600160a01b03166397da6d30853386612ccd878e8e612a3f565b612cd8878f8f612a3f565b6040518663ffffffff1660e01b8152600401612cf8959493929190613e0e565b6040805180830381600087803b158015612d1157600080fd5b505af1158015612d25573d6000803e3d6000fd5b505050506040513d601f19601f82011682018060405250810190612d499190613c00565b9550955050505050935093915050565b60606000806060600080600089806020019051810190612d7991906135ca565b94509450945094509450828015612d8e575081155b15612dbc578389604051602001612da6929190613c87565b6040516020818303038152906040529350612e15565b82158015612dc75750815b15612ddf578388604051602001612da6929190613c87565b828015612de95750815b15612e1557838989604051602001612e0393929190613ca9565b60405160208183030381529060405293505b7f00000000000000000000000000000000000000000000000000000000000000006001600160a01b0316856001600160a01b031614158015612e6057506001600160a01b0385163014155b612e7c5760405162461bcd60e51b815260040161069090614108565b60006060866001600160a01b03168d87604051612e999190613c6b565b60006040518083038185875af1925050503d8060008114612ed6576040519150601f19603f3d011682016040523d82523d6000602084013e612edb565b606091505b509150915081612efd5760405162461bcd60e51b815260040161069090613f9b565b9c919b50909950505050505050505050565b600083602001516001600160801b031660001415612f2e575081612fa8565b602084015184516001600160801b0391821691612f4d918691166131cb565b81612f5457fe5b049050818015612f9857508284600001516001600160801b0316612f8e86602001516001600160801b0316846131cb90919063ffffffff16565b81612f9557fe5b04105b15612fa85761076a816001613028565b9392505050565b82516000906001600160801b0316612fc8575081612fa8565b835160208501516001600160801b0391821691612fe7918691166131cb565b81612fee57fe5b049050818015612f9857508284602001516001600160801b0316612f8e86600001516001600160801b0316846131cb90919063ffffffff16565b81810181811015612a395760405162461bcd60e51b815260040161069090614067565b801561311d576130f9827f00000000000000000000000000000000000000000000000000000000000000006001600160a01b031663f7888aec87306040518363ffffffff1660e01b81526004016130a3929190613dca565b60206040518083038186803b1580156130bb57600080fd5b505afa1580156130cf573d6000803e3d6000fd5b505050506040513d601f19601f820116820180604052508101906130f39190613be8565b906131a8565b8311156131185760405162461bcd60e51b81526004016106909061416d565b6131a2565b604051633c6340f360e21b81526001600160a01b037f0000000000000000000000000000000000000000000000000000000000000000169063f18d03cc9061316f908790339030908990600401613de4565b600060405180830381600087803b15801561318957600080fd5b505af115801561319d573d6000803e3d6000fd5b505050505b50505050565b80820382811115612a395760405162461bcd60e51b815260040161069090613efe565b60008115806131e6575050808202828282816131e357fe5b04145b612a395760405162461bcd60e51b8152600401610690906141d0565b60006001600160801b0382111561322b5760405162461bcd60e51b815260040161069090613ff9565b5090565b8082036001600160801b038084169082161115612a395760405162461bcd60e51b815260040161069090613efe565b8181016001600160801b038083169082161015612a395760405162461bcd60e51b815260040161069090614067565b6132956133db565b60006132a2858585612f0f565b90506132c16132b082613202565b86516001600160801b03169061322f565b6001600160801b031685526132ec6132d885613202565b60208701516001600160801b03169061322f565b6001600160801b03166020860152939492505050565b61330a6133db565b6000613317858585612faf565b905061333661332585613202565b86516001600160801b03169061325e565b6001600160801b031685526132ec61334d82613202565b60208701516001600160801b03169061325e565b828054600181600116156101000203166002900490600052602060002090601f016020900481019282601f106133a257805160ff19168380011785556133cf565b828001600101855582156133cf579182015b828111156133cf5782518255916020019190600101906133b4565b5061322b929150613412565b604080518082019091526000808252602082015290565b604080516060810182526000808252602082018190529181019190915290565b5b8082111561322b5760008155600101613413565b8035612a398161438b565b60008083601f840112613443578182fd5b5081356001600160401b03811115613459578182fd5b6020830191508360208083028501011115610a5d57600080fd5b600082601f830112613483578081fd5b813561349661349182614311565b6142eb565b8181529150602080830190848101818402860182018710156134b757600080fd5b60005b848110156134d6578135845292820192908201906001016134ba565b505050505092915050565b8051612a39816143a3565b80516001600160801b0381168114612a3957600080fd5b80356001600160401b0381168114612a3957600080fd5b8051612a39816143b1565b600060208284031215613536578081fd5b8135612fa88161438b565b600060208284031215613552578081fd5b8151612fa88161438b565b60008060008060008060c08789031215613575578182fd5b86356135808161438b565b955060208701356135908161438b565b945060408701356135a0816143a3565b935060608701356135b0816143b1565b9598949750929560808101359460a0909101359350915050565b600080600080600060a086880312156135e1578283fd5b85516135ec8161438b565b60208701519095506001600160401b03811115613607578384fd5b8601601f81018813613617578384fd5b805161362561349182614330565b818152896020838501011115613639578586fd5b61364a82602083016020860161435f565b80965050505061365d87604088016134e1565b925061366c87606088016134e1565b915061367b876080880161351a565b90509295509295909350565b60008060006060848603121561369b578081fd5b83356136a68161438b565b925060208401356136b6816143a3565b915060408401356136c6816143a3565b809150509250925092565b6000806000606084860312156136e5578081fd5b83356136f08161438b565b92506020840135613700816143a3565b929592945050506040919091013590565b60008060408385031215613723578182fd5b823561372e8161438b565b946020939093013593505050565b60008060008060008060808789031215613754578384fd5b86356001600160401b038082111561376a578586fd5b6137768a838b01613432565b9098509650602089013591508082111561378e578586fd5b5061379b89828a01613432565b90955093505060408701356137af8161438b565b915060608701356137bf8161438b565b809150509295509295509295565b600080600080600080606087890312156137e5578384fd5b86356001600160401b03808211156137fb578586fd5b6138078a838b01613432565b9098509650602089013591508082111561381f578586fd5b61382b8a838b01613432565b90965094506040890135915080821115613843578384fd5b5061385089828a01613432565b979a9699509497509295939492505050565b60008060408385031215613874578182fd5b825161387f816143a3565b6020939093015192949293505050565b6000806000606084860312156138a3578081fd5b83356138ae816143a3565b95602085013595506040909401359392505050565b600080602083850312156138d5578182fd5b82356001600160401b03808211156138eb578384fd5b818501915085601f8301126138fe578384fd5b81358181111561390c578485fd5b86602082850101111561391d578485fd5b60209290920196919550909350505050565b600080600060608486031215613943578081fd5b833561394e8161438b565b925060208401356137008161438b565b60008060008060808587031215613973578182fd5b845161397e8161438b565b602086015190945061398f8161438b565b6040860151606090960151949790965092505050565b6000806000606084860312156139b9578081fd5b83356139c48161438b565b92506020848101356001600160401b03808211156139e0578384fd5b818701915087601f8301126139f3578384fd5b8135613a0161349182614311565b81815284810190848601868402860187018c1015613a1d578788fd5b8795505b83861015613a4757613a338c82613427565b835260019590950194918601918601613a21565b50965050506040870135925080831115613a5f578384fd5b5050613a6d86828701613473565b9150509250925092565b600080600080600080600060e0888a031215613a91578485fd5b8735613a9c8161438b565b96506020880135613aac8161438b565b955060408801356001600160401b03811115613ac6578586fd5b8801601f81018a13613ad6578586fd5b8035613ae461349182614330565b8181528b6020838501011115613af8578788fd5b816020840160208301379081016020019690965250613b1a8960608a01613503565b9699959850939660808101359560a0820135955060c0909101359350915050565b600060208284031215613b4c578081fd5b5035919050565b60008060408385031215613b65578182fd5b823591506020830135613b778161438b565b809150509250929050565b600080600060608486031215613b96578081fd5b8335925060208401356136b68161438b565b600060408284031215613bb9578081fd5b613bc360406142eb565b613bcd84846134ec565b8152613bdc84602085016134ec565b60208201529392505050565b600060208284031215613bf9578081fd5b5051919050565b60008060408385031215613c12578182fd5b505080516020909101519092909150565b600060208284031215613c34578081fd5b8135612fa8816143b1565b60008151808452613c5781602086016020860161435f565b601f01601f19169290920160200192915050565b60008251613c7d81846020870161435f565b9190910192915050565b60008351613c9981846020880161435f565b9190910191825250602001919050565b60008451613cbb81846020890161435f565b91909101928352506020820152604001919050565b6001600160a01b0391909116815260200190565b6001600160a01b039687168152949095166020850152911515604084015260ff166060830152608082015260a081019190915260c00190565b9115158252602082015260400190565b600060208252612fa86020830184613c3f565b60006020808301818452828554600180821660008114613d675760018114613d8557613dbd565b60028304607f16855260ff1983166040890152606088019350613dbd565b60028304808652613d958a614353565b885b82811015613db35781548b820160400152908401908801613d97565b8a01604001955050505b5091979650505050505050565b6001600160a01b0392831681529116602082015260400190565b6001600160a01b039485168152928416602084015292166040820152606081019190915260800190565b6001600160a01b03958616815293851660208501529190931660408301526060820192909252608081019190915260a00190565b60006080820160018060a01b0380881684526020818816818601526080604086015282875180855260a0870191508289019450855b81811015613e95578551851683529483019491830191600101613e77565b50508581036060870152865180825290820193509150808601845b83811015613ecc57815185529382019390820190600101613eb0565b50929998505050505050505050565b6001600160a01b0393909316835260208301919091521515604082015260600190565b602080825260159082015274426f72696e674d6174683a20556e646572666c6f7760581b604082015260600190565b60208082526018908201527f4361756c64726f6e3a207573657220696e736f6c76656e740000000000000000604082015260600190565b60208082526017908201527f43616c6c6572206973206e6f7420746865206f776e6572000000000000000000604082015260600190565b60208082526015908201527410d85d5b191c9bdb8e8818d85b1b0819985a5b1959605a1b604082015260600190565b6020808252601590820152744f776e61626c653a207a65726f206164647265737360581b604082015260600190565b6020808252601c908201527f426f72696e674d6174683a2075696e74313238204f766572666c6f7700000000604082015260600190565b60208082526019908201527f4361756c64726f6e3a20616c6c2061726520736f6c76656e7400000000000000604082015260600190565b60208082526018908201527f426f72696e674d6174683a20416464204f766572666c6f770000000000000000604082015260600190565b6020808252818101527f4f776e61626c653a2063616c6c6572206973206e6f7420746865206f776e6572604082015260600190565b6020808252818101527f4f776e61626c653a2063616c6c657220213d2070656e64696e67206f776e6572604082015260600190565b60208082526014908201527310d85d5b191c9bdb8e8818d85b89dd0818d85b1b60621b604082015260600190565b6020808252601d908201527f4361756c64726f6e3a20616c726561647920696e697469616c697a6564000000604082015260600190565b60208082526017908201527f4361756c64726f6e3a20536b696d20746f6f206d756368000000000000000000604082015260600190565b60208082526012908201527121b0bab6323937b71d103130b2103830b4b960711b604082015260600190565b60208082526018908201527f426f72696e674d6174683a204d756c204f766572666c6f770000000000000000604082015260600190565b6020808252601590820152744361756c64726f6e3a2072617465206e6f74206f6b60581b604082015260600190565b6001600160801b0391909116815260200190565b6001600160801b0392831681529116602082015260400190565b90815260200190565b918252602082015260400190565b6001600160401b0393841681526001600160801b03929092166020830152909116604082015260600190565b6000808335601e198436030181126142bd578283fd5b8301803591506001600160401b038211156142d6578283fd5b602001915036819003821315610a5d57600080fd5b6040518181016001600160401b038111828210171561430957600080fd5b604052919050565b60006001600160401b03821115614326578081fd5b5060209081020190565b60006001600160401b03821115614345578081fd5b50601f01601f191660200190565b60009081526020902090565b60005b8381101561437a578181015183820152602001614362565b838111156131a25750506000910152565b6001600160a01b03811681146143a057600080fd5b50565b80151581146143a057600080fd5b60ff811681146143a057600080fdfea2646970667358221220603b44946313bdbaf8b99680801fd496d96cef8d67dcadef58e9f726238339ff64736f6c634300060c0033",
  "devdoc": {
    "details": "This contract allows contract calls to any contract (except BentoBox) from arbitrary callers thus, don't trust calls from this contract in any circumstances.",
    "kind": "dev",
    "methods": {
      "addCollateral(address,bool,uint256)": {
        "params": {
          "share": "The amount of shares to add for `to`.",
          "skim": "True if the amount should be skimmed from the deposit balance of msg.sender.x False if tokens from msg.sender in `bentoBox` should be transferred.",
          "to": "The receiver of the tokens."
        }
      },
      "borrow(address,uint256)": {
        "returns": {
          "part": "Total part of the debt held by borrowers.",
          "share": "Total amount in shares borrowed."
        }
      },
      "cook(uint8[],uint256[],bytes[])": {
        "params": {
          "actions": "An array with a sequence of actions to execute (see ACTION_ declarations).",
          "datas": "A one-to-one mapped array to `actions`. Contains abi encoded data of function arguments.",
          "values": "A one-to-one mapped array to `actions`. ETH amounts to send along with the actions. Only applicable to `ACTION_CALL`, `ACTION_BENTO_DEPOSIT`."
        },
        "returns": {
          "value1": "May contain the first positioned return value of the last executed action (if applicable).",
          "value2": "May contain the second positioned return value of the last executed action which returns 2 values (if applicable)."
        }
      },
      "init(bytes)": {
        "details": "`data` is abi encoded in the format: (IERC20 collateral, IERC20 asset, IOracle oracle, bytes oracleData)"
      },
      "liquidate(address[],uint256[],address,address)": {
        "params": {
          "maxBorrowParts": "A one-to-one mapping to `users`, contains maximum (partial) borrow amounts (to liquidate) of the respective user.",
          "to": "Address of the receiver in open liquidations if `swapper` is zero.",
          "users": "An array of user addresses."
        }
      },
      "reduceSupply(uint256)": {
        "params": {
          "amount": "amount to reduce supply by"
        }
      },
      "removeCollateral(address,uint256)": {
        "params": {
          "share": "Amount of shares to remove.",
          "to": "The receiver of the shares."
        }
      },
      "repay(address,bool,uint256)": {
        "params": {
          "part": "The amount to repay. See `userBorrowPart`.",
          "skim": "True if the amount should be skimmed from the deposit balance of msg.sender. False if tokens from msg.sender in `bentoBox` should be transferred.",
          "to": "Address of the user this payment should go."
        },
        "returns": {
          "amount": "The total amount repayed."
        }
      },
      "setFeeTo(address)": {
        "params": {
          "newFeeTo": "The address of the receiver."
        }
      },
      "transferOwnership(address,bool,bool)": {
        "params": {
          "direct": "True if `newOwner` should be set immediately. False if `newOwner` needs to use `claimOwnership`.",
          "newOwner": "Address of the new owner.",
          "renounce": "Allows the `newOwner` to be `address(0)` if `direct` and `renounce` is True. Has no effect otherwise."
        }
      },
      "updateExchangeRate()": {
        "returns": {
          "rate": "The new exchange rate.",
          "updated": "True if `exchangeRate` was updated."
        }
      }
    },
    "title": "Cauldron",
    "version": 1
  },
  "userdoc": {
    "kind": "user",
    "methods": {
      "accrue()": {
        "notice": "Accrues the interest on the borrowed tokens and handles the accumulation of fees."
      },
      "addCollateral(address,bool,uint256)": {
        "notice": "Adds `collateral` from msg.sender to the account `to`."
      },
      "borrow(address,uint256)": {
        "notice": "Sender borrows `amount` and transfers it to `to`."
      },
      "claimOwnership()": {
        "notice": "Needs to be called by `pendingOwner` to claim ownership."
      },
      "constructor": "The constructor is only used for the initial master contract. Subsequent clones are initialised via `init`.",
      "cook(uint8[],uint256[],bytes[])": {
        "notice": "Executes a set of actions and allows composability (contract calls) to other contracts."
      },
      "exchangeRate()": {
        "notice": "Exchange and interest rate tracking. This is 'cached' here because calls to Oracles can be very expensive."
      },
      "init(bytes)": {
        "notice": "Serves as the constructor for clones, as clones can't have a regular constructor"
      },
      "liquidate(address[],uint256[],address,address)": {
        "notice": "Handles the liquidation of users' balances, once the users' amount of collateral is too low."
      },
      "reduceSupply(uint256)": {
        "notice": "reduces the supply of MIM"
      },
      "removeCollateral(address,uint256)": {
        "notice": "Removes `share` amount of collateral and transfers it to `to`."
      },
      "repay(address,bool,uint256)": {
        "notice": "Repays a loan."
      },
      "setFeeTo(address)": {
        "notice": "Sets the beneficiary of interest accrued. MasterContract Only Admin function."
      },
      "transferOwnership(address,bool,bool)": {
        "notice": "Transfers ownership to `newOwner`. Either directly or claimable by the new pending owner. Can only be invoked by the current `owner`."
      },
      "updateExchangeRate()": {
        "notice": "Gets the exchange rate. I.e how much collateral to buy 1e18 asset. This function is supposed to be invoked if needed because Oracle queries can be expensive."
      },
      "withdrawFees()": {
        "notice": "Withdraws the fees accumulated."
      }
    },
    "version": 1
  },
  "storageLayout": {
    "storage": [
      {
        "astId": 118,
        "contract": "contracts/CauldronV2.sol:CauldronV2",
        "label": "owner",
        "offset": 0,
        "slot": "0",
        "type": "t_address"
      },
      {
        "astId": 120,
        "contract": "contracts/CauldronV2.sol:CauldronV2",
        "label": "pendingOwner",
        "offset": 0,
        "slot": "1",
        "type": "t_address"
      },
      {
        "astId": 6977,
        "contract": "contracts/CauldronV2.sol:CauldronV2",
        "label": "feeTo",
        "offset": 0,
        "slot": "2",
        "type": "t_address"
      },
      {
        "astId": 6979,
        "contract": "contracts/CauldronV2.sol:CauldronV2",
        "label": "collateral",
        "offset": 0,
        "slot": "3",
        "type": "t_contract(IERC20)831"
      },
      {
        "astId": 6981,
        "contract": "contracts/CauldronV2.sol:CauldronV2",
        "label": "oracle",
        "offset": 0,
        "slot": "4",
        "type": "t_contract(IOracle)14448"
      },
      {
        "astId": 6983,
        "contract": "contracts/CauldronV2.sol:CauldronV2",
        "label": "oracleData",
        "offset": 0,
        "slot": "5",
        "type": "t_bytes_storage"
      },
      {
        "astId": 6985,
        "contract": "contracts/CauldronV2.sol:CauldronV2",
        "label": "totalCollateralShare",
        "offset": 0,
        "slot": "6",
        "type": "t_uint256"
      },
      {
        "astId": 6987,
        "contract": "contracts/CauldronV2.sol:CauldronV2",
        "label": "totalBorrow",
        "offset": 0,
        "slot": "7",
        "type": "t_struct(Rebase)1445_storage"
      },
      {
        "astId": 6991,
        "contract": "contracts/CauldronV2.sol:CauldronV2",
        "label": "userCollateralShare",
        "offset": 0,
        "slot": "8",
        "type": "t_mapping(t_address,t_uint256)"
      },
      {
        "astId": 6995,
        "contract": "contracts/CauldronV2.sol:CauldronV2",
        "label": "userBorrowPart",
        "offset": 0,
        "slot": "9",
        "type": "t_mapping(t_address,t_uint256)"
      },
      {
        "astId": 6998,
        "contract": "contracts/CauldronV2.sol:CauldronV2",
        "label": "exchangeRate",
        "offset": 0,
        "slot": "10",
        "type": "t_uint256"
      },
      {
        "astId": 7007,
        "contract": "contracts/CauldronV2.sol:CauldronV2",
        "label": "accrueInfo",
        "offset": 0,
        "slot": "11",
        "type": "t_struct(AccrueInfo)7005_storage"
      },
      {
        "astId": 7009,
        "contract": "contracts/CauldronV2.sol:CauldronV2",
        "label": "COLLATERIZATION_RATE",
        "offset": 0,
        "slot": "12",
        "type": "t_uint256"
      },
      {
        "astId": 7017,
        "contract": "contracts/CauldronV2.sol:CauldronV2",
        "label": "LIQUIDATION_MULTIPLIER",
        "offset": 0,
        "slot": "13",
        "type": "t_uint256"
      },
      {
        "astId": 7022,
        "contract": "contracts/CauldronV2.sol:CauldronV2",
        "label": "BORROW_OPENING_FEE",
        "offset": 0,
        "slot": "14",
        "type": "t_uint256"
      }
    ],
    "types": {
      "t_address": {
        "encoding": "inplace",
        "label": "address",
        "numberOfBytes": "20"
      },
      "t_bytes_storage": {
        "encoding": "bytes",
        "label": "bytes",
        "numberOfBytes": "32"
      },
      "t_contract(IERC20)831": {
        "encoding": "inplace",
        "label": "contract IERC20",
        "numberOfBytes": "20"
      },
      "t_contract(IOracle)14448": {
        "encoding": "inplace",
        "label": "contract IOracle",
        "numberOfBytes": "20"
      },
      "t_mapping(t_address,t_uint256)": {
        "encoding": "mapping",
        "key": "t_address",
        "label": "mapping(address => uint256)",
        "numberOfBytes": "32",
        "value": "t_uint256"
      },
      "t_struct(AccrueInfo)7005_storage": {
        "encoding": "inplace",
        "label": "struct CauldronV2.AccrueInfo",
        "members": [
          {
            "astId": 7000,
            "contract": "contracts/CauldronV2.sol:CauldronV2",
            "label": "lastAccrued",
            "offset": 0,
            "slot": "0",
            "type": "t_uint64"
          },
          {
            "astId": 7002,
            "contract": "contracts/CauldronV2.sol:CauldronV2",
            "label": "feesEarned",
            "offset": 8,
            "slot": "0",
            "type": "t_uint128"
          },
          {
            "astId": 7004,
            "contract": "contracts/CauldronV2.sol:CauldronV2",
            "label": "INTEREST_PER_SECOND",
            "offset": 24,
            "slot": "0",
            "type": "t_uint64"
          }
        ],
        "numberOfBytes": "32"
      },
      "t_struct(Rebase)1445_storage": {
        "encoding": "inplace",
        "label": "struct Rebase",
        "members": [
          {
            "astId": 1442,
            "contract": "contracts/CauldronV2.sol:CauldronV2",
            "label": "elastic",
            "offset": 0,
            "slot": "0",
            "type": "t_uint128"
          },
          {
            "astId": 1444,
            "contract": "contracts/CauldronV2.sol:CauldronV2",
            "label": "base",
            "offset": 16,
            "slot": "0",
            "type": "t_uint128"
          }
        ],
        "numberOfBytes": "32"
      },
      "t_uint128": {
        "encoding": "inplace",
        "label": "uint128",
        "numberOfBytes": "16"
      },
      "t_uint256": {
        "encoding": "inplace",
        "label": "uint256",
        "numberOfBytes": "32"
      },
      "t_uint64": {
        "encoding": "inplace",
        "label": "uint64",
        "numberOfBytes": "8"
      }
    }
  }
}