{
  "address": "0xded1340A337bDd69aecD7e696D610E9D2F49767f",
  "abi": [
    {
      "anonymous": false,
      "inputs": [
        {
          "indexed": true,
          "internalType": "address",
          "name": "_owner",
          "type": "address"
        },
        {
          "indexed": true,
          "internalType": "address",
          "name": "_spender",
          "type": "address"
        },
        {
          "indexed": false,
          "internalType": "uint256",
          "name": "_value",
          "type": "uint256"
        }
      ],
      "name": "Approval",
      "type": "event"
    },
    {
      "anonymous": false,
      "inputs": [
        {
          "indexed": true,
          "internalType": "address",
          "name": "previousOwner",
          "type": "address"
        },
        {
          "indexed": true,
          "internalType": "address",
          "name": "newOwner",
          "type": "address"
        }
      ],
      "name": "OwnershipTransferred",
      "type": "event"
    },
    {
      "anonymous": false,
      "inputs": [
        {
          "indexed": true,
          "internalType": "address",
          "name": "_from",
          "type": "address"
        },
        {
          "indexed": true,
          "internalType": "address",
          "name": "_to",
          "type": "address"
        },
        {
          "indexed": false,
          "internalType": "uint256",
          "name": "_value",
          "type": "uint256"
        }
      ],
      "name": "Transfer",
      "type": "event"
    },
    {
      "inputs": [],
      "name": "DOMAIN_SEPARATOR",
      "outputs": [
        {
          "internalType": "bytes32",
          "name": "",
          "type": "bytes32"
        }
      ],
      "stateMutability": "view",
      "type": "function"
    },
    {
      "inputs": [
        {
          "internalType": "address",
          "name": "",
          "type": "address"
        },
        {
          "internalType": "address",
          "name": "",
          "type": "address"
        }
      ],
      "name": "allowance",
      "outputs": [
        {
          "internalType": "uint256",
          "name": "",
          "type": "uint256"
        }
      ],
      "stateMutability": "view",
      "type": "function"
    },
    {
      "inputs": [
        {
          "internalType": "address",
          "name": "spender",
          "type": "address"
        },
        {
          "internalType": "uint256",
          "name": "amount",
          "type": "uint256"
        }
      ],
      "name": "approve",
      "outputs": [
        {
          "internalType": "bool",
          "name": "",
          "type": "bool"
        }
      ],
      "stateMutability": "nonpayable",
      "type": "function"
    },
    {
      "inputs": [
        {
          "internalType": "address",
          "name": "",
          "type": "address"
        }
      ],
      "name": "balanceOf",
      "outputs": [
        {
          "internalType": "uint256",
          "name": "",
          "type": "uint256"
        }
      ],
      "stateMutability": "view",
      "type": "function"
    },
    {
      "inputs": [
        {
          "internalType": "uint256",
          "name": "amount",
          "type": "uint256"
        }
      ],
      "name": "burn",
      "outputs": [],
      "stateMutability": "nonpayable",
      "type": "function"
    },
    {
      "inputs": [],
      "name": "claimOwnership",
      "outputs": [],
      "stateMutability": "nonpayable",
      "type": "function"
    },
    {
      "inputs": [],
      "name": "decimals",
      "outputs": [
        {
          "internalType": "uint8",
          "name": "",
          "type": "uint8"
        }
      ],
      "stateMutability": "view",
      "type": "function"
    },
    {
      "inputs": [],
      "name": "lastMint",
      "outputs": [
        {
          "internalType": "uint128",
          "name": "time",
          "type": "uint128"
        },
        {
          "internalType": "uint128",
          "name": "amount",
          "type": "uint128"
        }
      ],
      "stateMutability": "view",
      "type": "function"
    },
    {
      "inputs": [
        {
          "internalType": "address",
          "name": "to",
          "type": "address"
        },
        {
          "internalType": "uint256",
          "name": "amount",
          "type": "uint256"
        }
      ],
      "name": "mint",
      "outputs": [],
      "stateMutability": "nonpayable",
      "type": "function"
    },
    {
      "inputs": [
        {
          "internalType": "address",
          "name": "clone",
          "type": "address"
        },
        {
          "internalType": "uint256",
          "name": "amount",
          "type": "uint256"
        },
        {
          "internalType": "contract IBentoBoxV1",
          "name": "bentoBox",
          "type": "address"
        }
      ],
      "name": "mintToBentoBox",
      "outputs": [],
      "stateMutability": "nonpayable",
      "type": "function"
    },
    {
      "inputs": [],
      "name": "name",
      "outputs": [
        {
          "internalType": "string",
          "name": "",
          "type": "string"
        }
      ],
      "stateMutability": "view",
      "type": "function"
    },
    {
      "inputs": [
        {
          "internalType": "address",
          "name": "",
          "type": "address"
        }
      ],
      "name": "nonces",
      "outputs": [
        {
          "internalType": "uint256",
          "name": "",
          "type": "uint256"
        }
      ],
      "stateMutability": "view",
      "type": "function"
    },
    {
      "inputs": [],
      "name": "owner",
      "outputs": [
        {
          "internalType": "address",
          "name": "",
          "type": "address"
        }
      ],
      "stateMutability": "view",
      "type": "function"
    },
    {
      "inputs": [],
      "name": "pendingOwner",
      "outputs": [
        {
          "internalType": "address",
          "name": "",
          "type": "address"
        }
      ],
      "stateMutability": "view",
      "type": "function"
    },
    {
      "inputs": [
        {
          "internalType": "address",
          "name": "owner_",
          "type": "address"
        },
        {
          "internalType": "address",
          "name": "spender",
          "type": "address"
        },
        {
          "internalType": "uint256",
          "name": "value",
          "type": "uint256"
        },
        {
          "internalType": "uint256",
          "name": "deadline",
          "type": "uint256"
        },
        {
          "internalType": "uint8",
          "name": "v",
          "type": "uint8"
        },
        {
          "internalType": "bytes32",
          "name": "r",
          "type": "bytes32"
        },
        {
          "internalType": "bytes32",
          "name": "s",
          "type": "bytes32"
        }
      ],
      "name": "permit",
      "outputs": [],
      "stateMutability": "nonpayable",
      "type": "function"
    },
    {
      "inputs": [],
      "name": "symbol",
      "outputs": [
        {
          "internalType": "string",
          "name": "",
          "type": "string"
        }
      ],
      "stateMutability": "view",
      "type": "function"
    },
    {
      "inputs": [],
      "name": "totalSupply",
      "outputs": [
        {
          "internalType": "uint256",
          "name": "",
          "type": "uint256"
        }
      ],
      "stateMutability": "view",
      "type": "function"
    },
    {
      "inputs": [
        {
          "internalType": "address",
          "name": "to",
          "type": "address"
        },
        {
          "internalType": "uint256",
          "name": "amount",
          "type": "uint256"
        }
      ],
      "name": "transfer",
      "outputs": [
        {
          "internalType": "bool",
          "name": "",
          "type": "bool"
        }
      ],
      "stateMutability": "nonpayable",
      "type": "function"
    },
    {
      "inputs": [
        {
          "internalType": "address",
          "name": "from",
          "type": "address"
        },
        {
          "internalType": "address",
          "name": "to",
          "type": "address"
        },
        {
          "internalType": "uint256",
          "name": "amount",
          "type": "uint256"
        }
      ],
      "name": "transferFrom",
      "outputs": [
        {
          "internalType": "bool",
          "name": "",
          "type": "bool"
        }
      ],
      "stateMutability": "nonpayable",
      "type": "function"
    },
    {
      "inputs": [
        {
          "internalType": "address",
          "name": "newOwner",
          "type": "address"
        },
        {
          "internalType": "bool",
          "name": "direct",
          "type": "bool"
        },
        {
          "internalType": "bool",
          "name": "renounce",
          "type": "bool"
        }
      ],
      "name": "transferOwnership",
      "outputs": [],
      "stateMutability": "nonpayable",
      "type": "function"
    }
  ],
  "transactionHash": "0xe4f9074451864cfb4ae7cb13c8c68b7bece2104623ed157d76a995eefc62cec3",
  "args": [],
  "solcInputHash": "adcd13e2098172d5b1c00cfa80d76aea",
  "bytecode": "0x60c060405234801561001057600080fd5b504660a081905261002081610069565b60805250600380546001600160a01b031916339081179091556040516000907f8be0079c531659141344cd1fd0a4f28419497f9722a3daafe3b4186f6b6457e0908290a36100c2565b604080517f47e79534a245952e8b16893a336b85a3d9ea9fa8c573f3d803afb92a794692186020808301919091528183019390935230606080830191909152825180830390910181526080909101909152805191012090565b60805160a0516113c36100e5600039806110f752508061112c52506113c36000f3fe608060405234801561001057600080fd5b506004361061012c5760003560e01c8063586fc5b5116100ad57806395d89b411161007157806395d89b41146103ca578063a9059cbb146103d2578063d505accf146103fe578063dd62ed3e1461044f578063e30c39781461047d5761012c565b8063586fc5b5146102ed57806369e402651461032457806370a082311461035a5780637ecebe00146103805780638da5cb5b146103a65761012c565b8063313ce567116100f4578063313ce567146102765780633644e5151461029457806340c10f191461029c57806342966c68146102c85780634e71e0c8146102e55761012c565b806306fdde0314610131578063078dfbe7146101ae578063095ea7b3146101e657806318160ddd1461022657806323b872dd14610240575b600080fd5b610139610485565b6040805160208082528351818301528351919283929083019185019080838360005b8381101561017357818101518382015260200161015b565b50505050905090810190601f1680156101a05780820380516001836020036101000a031916815260200191505b509250505060405180910390f35b6101e4600480360360608110156101c457600080fd5b506001600160a01b038135169060208101351515906040013515156104b5565b005b610212600480360360408110156101fc57600080fd5b506001600160a01b0381351690602001356105fe565b604080519115158252519081900360200190f35b61022e610665565b60408051918252519081900360200190f35b6102126004803603606081101561025657600080fd5b506001600160a01b0381358116916020810135909116906040013561066b565b61027e610864565b6040805160ff9092168252519081900360200190f35b61022e610869565b6101e4600480360360408110156102b257600080fd5b506001600160a01b038135169060200135610878565b6101e4600480360360208110156102de57600080fd5b5035610a61565b6101e4610afd565b6102f5610bc0565b60405180836001600160801b03168152602001826001600160801b031681526020019250505060405180910390f35b6101e46004803603606081101561033a57600080fd5b506001600160a01b03813581169160208101359160409091013516610bda565b61022e6004803603602081101561037057600080fd5b50356001600160a01b0316610cda565b61022e6004803603602081101561039657600080fd5b50356001600160a01b0316610cec565b6103ae610cfe565b604080516001600160a01b039092168252519081900360200190f35b610139610d0d565b610212600480360360408110156103e857600080fd5b506001600160a01b038135169060200135610d2c565b6101e4600480360360e081101561041457600080fd5b506001600160a01b03813581169160208101359091169060408101359060608101359060ff6080820135169060a08101359060c00135610e6e565b61022e6004803603604081101561046557600080fd5b506001600160a01b03813581169160200135166110c6565b6103ae6110e3565b604051806040016040528060148152602001734d6167696320496e7465726e6574204d6f6e657960601b81525081565b6003546001600160a01b03163314610514576040805162461bcd60e51b815260206004820181905260248201527f4f776e61626c653a2063616c6c6572206973206e6f7420746865206f776e6572604482015290519081900360640190fd5b81156105dd576001600160a01b03831615158061052e5750805b610577576040805162461bcd60e51b81526020600482015260156024820152744f776e61626c653a207a65726f206164647265737360581b604482015290519081900360640190fd5b6003546040516001600160a01b038086169216907f8be0079c531659141344cd1fd0a4f28419497f9722a3daafe3b4186f6b6457e090600090a3600380546001600160a01b0385166001600160a01b0319918216179091556004805490911690556105f9565b600480546001600160a01b0319166001600160a01b0385161790555b505050565b3360008181526001602090815260408083206001600160a01b038716808552908352818420869055815186815291519394909390927f8c5be1e5ebec7d5bd14f71427d1e84f3dd0314c0f7b2291e5b200ac8c7c3b925928290030190a35060015b92915050565b60055481565b60008115610821576001600160a01b038416600090815260208190526040902054828110156106da576040805162461bcd60e51b815260206004820152601660248201527545524332303a2062616c616e636520746f6f206c6f7760501b604482015290519081900360640190fd5b836001600160a01b0316856001600160a01b03161461081f576001600160a01b0385166000908152600160209081526040808320338452909152902054600019811461079e5783811015610775576040805162461bcd60e51b815260206004820152601860248201527f45524332303a20616c6c6f77616e636520746f6f206c6f770000000000000000604482015290519081900360640190fd5b6001600160a01b0386166000908152600160209081526040808320338452909152902084820390555b6001600160a01b0385166107f2576040805162461bcd60e51b815260206004820152601660248201527545524332303a206e6f207a65726f206164647265737360501b604482015290519081900360640190fd5b506001600160a01b0380861660009081526020819052604080822086850390559186168152208054840190555b505b826001600160a01b0316846001600160a01b031660008051602061136e833981519152846040518082815260200191505060405180910390a35060019392505050565b601281565b60006108736110f2565b905090565b6003546001600160a01b031633146108d7576040805162461bcd60e51b815260206004820181905260248201527f4f776e61626c653a2063616c6c6572206973206e6f7420746865206f776e6572604482015290519081900360640190fd5b6001600160a01b038216610932576040805162461bcd60e51b815260206004820152601c60248201527f4d494d3a206e6f206d696e7420746f207a65726f206164647265737300000000604482015290519081900360640190fd5b60065460009061097f9083906201517f1942016001600160801b039091161061096d57600654600160801b90046001600160801b0316610970565b60005b6001600160801b031690611152565b9050600554600014806109b4575080620186a06109a9613a986005546111aa90919063ffffffff16565b816109b057fe5b0410155b6109bd57600080fd5b6109c642611216565b600680546fffffffffffffffffffffffffffffffff19166001600160801b03929092169190911790556109f881611216565b600680546001600160801b03928316600160801b02921691909117905560058054830190556001600160a01b0383166000818152602081815260408083208054870190558051868152905160008051602061136e833981519152929181900390910190a3505050565b33600090815260208190526040902054811115610ab7576040805162461bcd60e51b815260206004820152600f60248201526e09a929a7440dcdee840cadcdeeaced608b1b604482015290519081900360640190fd5b33600081815260208181526040808320805486900390556005805486900390558051858152905192939260008051602061136e833981519152929181900390910190a350565b6004546001600160a01b0316338114610b5d576040805162461bcd60e51b815260206004820181905260248201527f4f776e61626c653a2063616c6c657220213d2070656e64696e67206f776e6572604482015290519081900360640190fd5b6003546040516001600160a01b038084169216907f8be0079c531659141344cd1fd0a4f28419497f9722a3daafe3b4186f6b6457e090600090a3600380546001600160a01b039092166001600160a01b0319928316179055600480549091169055565b6006546001600160801b0380821691600160801b90041682565b6003546001600160a01b03163314610c39576040805162461bcd60e51b815260206004820181905260248201527f4f776e61626c653a2063616c6c6572206973206e6f7420746865206f776e6572604482015290519081900360640190fd5b610c438183610878565b6040805162ae511b60e21b81523060048201526001600160a01b0380841660248301819052908616604483015260648201859052600060848301819052835191936302b9446c9360a4808201949293918390030190829087803b158015610ca957600080fd5b505af1158015610cbd573d6000803e3d6000fd5b505050506040513d6040811015610cd357600080fd5b5050505050565b60006020819052908152604090205481565b60026020526000908152604090205481565b6003546001600160a01b031681565b604051806040016040528060038152602001624d494d60e81b81525081565b600081151580610d445750336001600160a01b038416145b15610e37573360009081526020819052604090205482811015610da7576040805162461bcd60e51b815260206004820152601660248201527545524332303a2062616c616e636520746f6f206c6f7760501b604482015290519081900360640190fd5b336001600160a01b03851614610e35576001600160a01b038416610e0b576040805162461bcd60e51b815260206004820152601660248201527545524332303a206e6f207a65726f206164647265737360501b604482015290519081900360640190fd5b3360009081526020819052604080822085840390556001600160a01b038616825290208054840190555b505b6040805183815290516001600160a01b03851691339160008051602061136e8339815191529181900360200190a350600192915050565b6001600160a01b038716610ec9576040805162461bcd60e51b815260206004820152601860248201527f45524332303a204f776e65722063616e6e6f7420626520300000000000000000604482015290519081900360640190fd5b834210610f0e576040805162461bcd60e51b815260206004820152600e60248201526d115490cc8c0e88115e1c1a5c995960921b604482015290519081900360640190fd5b6001600160a01b038088166000818152600260209081526040918290208054600181810190925583517f6e71edae12b1b97f4d1f60370fef10105fa2faae0126114a169c64845d6126c981850152808501869052958c166060870152608086018b905260a086015260c08086018a90528351808703909101815260e09095019092528351930192909220909190610fa490611278565b85858560405160008152602001604052604051808581526020018460ff1681526020018381526020018281526020019450505050506020604051602081039080840390855afa158015610ffb573d6000803e3d6000fd5b505050602060405103516001600160a01b031614611060576040805162461bcd60e51b815260206004820152601860248201527f45524332303a20496e76616c6964205369676e61747572650000000000000000604482015290519081900360640190fd5b6001600160a01b038088166000818152600160209081526040808320948b1680845294825291829020899055815189815291517f8c5be1e5ebec7d5bd14f71427d1e84f3dd0314c0f7b2291e5b200ac8c7c3b9259281900390910190a350505050505050565b600160209081526000928352604080842090915290825290205481565b6004546001600160a01b031681565b6000467f0000000000000000000000000000000000000000000000000000000000000000811461112a5761112581611314565b61114c565b7f00000000000000000000000000000000000000000000000000000000000000005b91505090565b8181018181101561065f576040805162461bcd60e51b815260206004820152601860248201527f426f72696e674d6174683a20416464204f766572666c6f770000000000000000604482015290519081900360640190fd5b60008115806111c5575050808202828282816111c257fe5b04145b61065f576040805162461bcd60e51b815260206004820152601860248201527f426f72696e674d6174683a204d756c204f766572666c6f770000000000000000604482015290519081900360640190fd5b60006001600160801b03821115611274576040805162461bcd60e51b815260206004820152601c60248201527f426f72696e674d6174683a2075696e74313238204f766572666c6f7700000000604482015290519081900360640190fd5b5090565b600060405180604001604052806002815260200161190160f01b81525061129d6110f2565b836040516020018084805190602001908083835b602083106112d05780518252601f1990920191602091820191016112b1565b51815160209384036101000a600019018019909216911617905292019485525083810192909252506040805180840383018152928101905281519101209392505050565b604080517f47e79534a245952e8b16893a336b85a3d9ea9fa8c573f3d803afb92a79469218602080830191909152818301939093523060608083019190915282518083039091018152608090910190915280519101209056feddf252ad1be2c89b69c2b068fc378daa952ba7f163c4a11628f55a4df523b3efa264697066735822122077857700573cc521313142d6087dff7baf73e77acc505bfc8b9bbbddaad0e78b64736f6c634300060c0033",
  "devdoc": {
    "details": "This contract allows contract calls to any contract (except BentoBox) from arbitrary callers thus, don't trust calls from this contract in any circumstances.",
    "kind": "dev",
    "methods": {
      "approve(address,uint256)": {
        "params": {
          "amount": "The maximum collective amount that `spender` can draw.",
          "spender": "Address of the party that can draw from msg.sender's account."
        },
        "returns": {
          "_0": "(bool) Returns True if approved."
        }
      },
      "permit(address,address,uint256,uint256,uint8,bytes32,bytes32)": {
        "params": {
          "deadline": "This permit must be redeemed before this deadline (UTC timestamp in seconds).",
          "owner_": "Address of the owner.",
          "spender": "The address of the spender that gets approved to draw from `owner_`.",
          "value": "The maximum collective amount that `spender` can draw."
        }
      },
      "transfer(address,uint256)": {
        "params": {
          "amount": "of the tokens to move.",
          "to": "The address to move the tokens."
        },
        "returns": {
          "_0": "(bool) Returns True if succeeded."
        }
      },
      "transferFrom(address,address,uint256)": {
        "params": {
          "amount": "The token amount to move.",
          "from": "Address to draw tokens from.",
          "to": "The address to move the tokens."
        },
        "returns": {
          "_0": "(bool) Returns True if succeeded."
        }
      },
      "transferOwnership(address,bool,bool)": {
        "params": {
          "direct": "True if `newOwner` should be set immediately. False if `newOwner` needs to use `claimOwnership`.",
          "newOwner": "Address of the new owner.",
          "renounce": "Allows the `newOwner` to be `address(0)` if `direct` and `renounce` is True. Has no effect otherwise."
        }
      }
    },
    "title": "Cauldron",
    "version": 1
  },
  "userdoc": {
    "kind": "user",
    "methods": {
      "allowance(address,address)": {
        "notice": "owner > spender > allowance mapping."
      },
      "approve(address,uint256)": {
        "notice": "Approves `amount` from sender to be spend by `spender`."
      },
      "balanceOf(address)": {
        "notice": "owner > balance mapping."
      },
      "claimOwnership()": {
        "notice": "Needs to be called by `pendingOwner` to claim ownership."
      },
      "nonces(address)": {
        "notice": "owner > nonce mapping. Used in `permit`."
      },
      "permit(address,address,uint256,uint256,uint8,bytes32,bytes32)": {
        "notice": "Approves `value` from `owner_` to be spend by `spender`."
      },
      "transfer(address,uint256)": {
        "notice": "Transfers `amount` tokens from `msg.sender` to `to`."
      },
      "transferFrom(address,address,uint256)": {
        "notice": "Transfers `amount` tokens from `from` to `to`. Caller needs approval for `from`."
      },
      "transferOwnership(address,bool,bool)": {
        "notice": "Transfers ownership to `newOwner`. Either directly or claimable by the new pending owner. Can only be invoked by the current `owner`."
      }
    },
    "version": 1
  },
  "storageLayout": {
    "storage": [
      {
        "astId": 368,
        "contract": "contracts/MagicInternetMoney.sol:MagicInternetMoney",
        "label": "balanceOf",
        "offset": 0,
        "slot": "0",
        "type": "t_mapping(t_address,t_uint256)"
      },
      {
        "astId": 376,
        "contract": "contracts/MagicInternetMoney.sol:MagicInternetMoney",
        "label": "allowance",
        "offset": 0,
        "slot": "1",
        "type": "t_mapping(t_address,t_mapping(t_address,t_uint256))"
      },
      {
        "astId": 381,
        "contract": "contracts/MagicInternetMoney.sol:MagicInternetMoney",
        "label": "nonces",
        "offset": 0,
        "slot": "2",
        "type": "t_mapping(t_address,t_uint256)"
      },
      {
        "astId": 118,
        "contract": "contracts/MagicInternetMoney.sol:MagicInternetMoney",
        "label": "owner",
        "offset": 0,
        "slot": "3",
        "type": "t_address"
      },
      {
        "astId": 120,
        "contract": "contracts/MagicInternetMoney.sol:MagicInternetMoney",
        "label": "pendingOwner",
        "offset": 0,
        "slot": "4",
        "type": "t_address"
      },
      {
        "astId": 13364,
        "contract": "contracts/MagicInternetMoney.sol:MagicInternetMoney",
        "label": "totalSupply",
        "offset": 0,
        "slot": "5",
        "type": "t_uint256"
      },
      {
        "astId": 13371,
        "contract": "contracts/MagicInternetMoney.sol:MagicInternetMoney",
        "label": "lastMint",
        "offset": 0,
        "slot": "6",
        "type": "t_struct(Minting)13369_storage"
      }
    ],
    "types": {
      "t_address": {
        "encoding": "inplace",
        "label": "address",
        "numberOfBytes": "20"
      },
      "t_mapping(t_address,t_mapping(t_address,t_uint256))": {
        "encoding": "mapping",
        "key": "t_address",
        "label": "mapping(address => mapping(address => uint256))",
        "numberOfBytes": "32",
        "value": "t_mapping(t_address,t_uint256)"
      },
      "t_mapping(t_address,t_uint256)": {
        "encoding": "mapping",
        "key": "t_address",
        "label": "mapping(address => uint256)",
        "numberOfBytes": "32",
        "value": "t_uint256"
      },
      "t_struct(Minting)13369_storage": {
        "encoding": "inplace",
        "label": "struct MagicInternetMoney.Minting",
        "members": [
          {
            "astId": 13366,
            "contract": "contracts/MagicInternetMoney.sol:MagicInternetMoney",
            "label": "time",
            "offset": 0,
            "slot": "0",
            "type": "t_uint128"
          },
          {
            "astId": 13368,
            "contract": "contracts/MagicInternetMoney.sol:MagicInternetMoney",
            "label": "amount",
            "offset": 16,
            "slot": "0",
            "type": "t_uint128"
          }
        ],
        "numberOfBytes": "32"
      },
      "t_uint128": {
        "encoding": "inplace",
        "label": "uint128",
        "numberOfBytes": "16"
      },
      "t_uint256": {
        "encoding": "inplace",
        "label": "uint256",
        "numberOfBytes": "32"
      }
    }
  }
}